{
  "transactions": [
    {
      "hash": "0xc75ca3fb5c9ad26bc960e8b9c97a4910bf09daf5b24b1d87f122d65b2deafc6b",
      "transactionType": "CALL",
      "contractName": null,
      "contractAddress": null,
      "function": null,
      "arguments": null,
      "transaction": {
        "type": "0x02",
        "from": "0x90f79bf6eb2c4f870365e785982e1f101e93b906",
        "to": "0x389fbf457a6ba8dfed6b8f2c04899fea5ef92f12",
        "gas": "0x6aa4",
        "value": "0xde0b6b3a7640000",
        "data": "0x",
        "nonce": "0x2",
        "accessList": []
      },
      "additionalContracts": [],
      "isFixedGasLimit": false
    },
    {
      "hash": "0x83f3163ee2243f1d3dc5cd6b2bada24c5209813f36bd2710e2d41248ce4e3e4c",
      "transactionType": "CALL",
      "contractName": null,
      "contractAddress": "0x5FF137D4b0FDCD49DcA30c7CF57E578a026d2789",
      "function": null,
      "arguments": null,
      "transaction": {
        "type": "0x02",
        "from": "0x90f79bf6eb2c4f870365e785982e1f101e93b906",
        "to": "0x5ff137d4b0fdcd49dca30c7cf57e578a026d2789",
        "gas": "0x5fc4c",
        "value": "0x0",
        "data": "0x1fad948c000000000000000000000000000000000000000000000000000000000000004000000000000000000000000090f79bf6eb2c4f870365e785982e1f101e93b90600000000000000000000000000000000000000000000000000000000000000010000000000000000000000000000000000000000000000000000000000000020000000000000000000000000389fbf457a6ba8dfed6b8f2c04899fea5ef92f120000000000000000000000000000000000000000000000000000000000000000000000000000000000000000000000000000000000000000000000000000016000000000000000000000000000000000000000000000000000000000000002c00000000000000000000000000000000000000000000000000000000001312d000000000000000000000000000000000000000000000000000000000001312d00000000000000000000000000000000000000000000000000000000000007a120000000000000000000000000000000000000000000000000000000000007a120000000000000000000000000000000000000000000000000000000000000000100000000000000000000000000000000000000000000000000000000000002e0000000000000000000000000000000000000000000000000000000000000030000000000000000000000000000000000000000000000000000000000000001385de4839a76cf55d0c90e2061ef4386d962e15ae3296601cd000000000000000000000000f048ad83cb2dfd6037a43902a2a5be04e53cd2eb000000000000000000000000000000000000000000000000000000000000006000000000000000000000000000000000000000000000000000000000000000000000000000000000000000000000000000000000000000000000000000000084d1f57894000000000000000000000000d9ab5096a832b9ce79914329daee236f8eea03900000000000000000000000000000000000000000000000000000000000000040000000000000000000000000000000000000000000000000000000000000001490f79bf6eb2c4f870365e785982e1f101e93b90600000000000000000000000000000000000000000000000000000000000000000000000000000000000000000000000000000000000000000000000000000000000000000000000000000000000000000000000000000000000000000000000000000000000000000000000000000000000000000000000000000000000000000000000000000000000000000000004500000000b11600a9a0285ed7989cd6a7bc55ccd0e0c0c44c81ec2645cfcb829447770ce477918822fe26c101dd0e3f5b85c82821df343213980b95455b45b44df8015ec81b000000000000000000000000000000000000000000000000000000",
        "nonce": "0x3",
        "accessList": []
      },
      "additionalContracts": [
        {
          "transactionType": "CREATE2",
          "address": "0x389fBf457a6BA8dFeD6b8F2C04899feA5ef92f12",
          "initCode": "0x607f3d8160093d39f33d3d33735de4839a76cf55d0c90e2061ef4386d962e15ae314605757363d3d37363d7f360894a13ba1a3210667c828492db98dca3e2076cc3735a920a3ca505d382bbc545af43d6000803e6052573d6000fd5b3d6000f35b3d356020355560408036111560525736038060403d373d3d355af43d6000803e6052573d6000fd00"
        }
      ],
      "isFixedGasLimit": false
    },
    {
      "hash": "0x36d2186bfaefcee042afaa2be8ecd9e403419f232f2db7f0cc9bfc155d821cfa",
      "transactionType": "CREATE",
      "contractName": "MarketRegistry",
      "contractAddress": "0x1AC65dF2A1d1aC5B66C32dAF500fE5218f6CeA7B",
      "function": null,
      "arguments": null,
      "transaction": {
        "type": "0x02",
        "from": "0xf39fd6e51aad88f6f4ce6ab8827279cfffb92266",
        "gas": "0x229290",
        "value": "0x0",
        "data": "0x6080806040523461005b5760008054336001600160a01b0319821681178355916001600160a01b03909116907f8be0079c531659141344cd1fd0a4f28419497f9722a3daafe3b4186f6b6457e09080a3611e1a90816100618239f35b600080fdfe608080604052600436101561001357600080fd5b60003560e01c908163087d50c414611989575080630ab77cd5146119475780630b9568e9146118cc578063326c4379146117a257806335ebc21f1461168c57806343110efa146116475780635ce95b771461147057806366c354fb14610cdf57806368bd57d7146109445780636c7da6a5146103bf578063715018a6146103665780638da5cb5b1461033d578063a373a16214610283578063beb1744b14610243578063c400536f14610209578063c8d8cf88146101eb578063ec68fe68146101ae5763f2fde38b146100e557600080fd5b346101a95760203660031901126101a9576100fe611a88565b610106611cd8565b6001600160a01b0390811690811561015557600054826001600160601b0360a01b821617600055167f8be0079c531659141344cd1fd0a4f28419497f9722a3daafe3b4186f6b6457e0600080a3005b60405162461bcd60e51b815260206004820152602660248201527f4f776e61626c653a206e6577206f776e657220697320746865207a65726f206160448201526564647265737360d01b6064820152608490fd5b600080fd5b346101a95760203660031901126101a9576001600160a01b036101cf611a88565b166000526003602052602060ff60406000205416604051908152f35b346101a95760003660031901126101a9576020600154604051908152f35b346101a95760203660031901126101a957610222611cd8565b6004356000908152600260205260409020600501805460ff60a81b19169055005b346101a95760203660031901126101a95761025c611cd8565b6004356000908152600260205260409020600501805460ff60a81b1916600160a81b179055005b346101a95760203660031901126101a95760043580600052600260205260018060a01b036005604060002001541633141580610321575b6102dc576000908152600260205260409020600501805460ff60a01b19169055005b60405162461bcd60e51b815260206004820152601d60248201527f6e6f742070726f70657220736563757269747920636f756e63696c2e2e0000006044820152606490fd5b50336000526003602052600160ff6040600020541614156102ba565b346101a95760003660031901126101a9576000546040516001600160a01b039091168152602090f35b346101a95760003660031901126101a95761037f611cd8565b600080546001600160a01b0319811682556001600160a01b03167f8be0079c531659141344cd1fd0a4f28419497f9722a3daafe3b4186f6b6457e08280a3005b346101a9576101403660031901126101a9576004356001600160401b0381116101a9576103f0903690600401611c27565b906024356001600160a01b03811681036101a95761040c611a9e565b6064356001600160401b0381116101a95761042b903690600401611c9a565b6084356001600160a01b03811681036101a957610446611cc8565b60c435916001600160a01b03831683036101a95760e435936001600160801b03851685036101a957610104359565ffffffffffff871687036101a9576001600160401b0361012435116101a9576104a33660046101243501611c27565b9890996104ae611d30565b9b36906104ba92611c54565b8b526001600160a01b0390811660208c015290811660408b015260608a0191909152600060c08a0181905260e08a01523360808a015290811660a089015260ff91909116610100880152166101208601526001600160801b031661014085015265ffffffffffff1661016084015261053491369190611c54565b610180820152600154600052600260205260406000209080519182516001600160401b03811161083a576105728161056c8454611aca565b84611d90565b6020601f82116001146108dc57819293946000926108d1575b50508160011b916000199060031b1c19161781555b60208201516001820180546001600160a01b039283166001600160a01b031991821617909155604084015160028401805491909316911617905560608201518051906001600160401b03821161083a5761060a826106016003860154611aca565b60038601611d90565b602090601f831160011461085b5791806101809492600894600092610850575b50508160011b916000199060031b1c19161760038201555b60808401516004820180546001600160a01b0319166001600160a01b0392831617905560a08581015160058401805460c08901516001600160a81b031990911692909416919091179290911b60ff60a01b169190911781556106dc905b60e0860151815460ff60a81b191660a89190911b60ff60a81b16178155610100860151815460ff60b01b191660b09190911b60ff60b01b16179055565b6101208401516006820180546001600160a01b039092166001600160a01b031990921691909117905561014084015160078201805461016087015165ffffffffffff60801b60809190911b166001600160801b039093166001600160b01b031990911617919091179055019101519081516001600160401b03811161083a576107698161056c8454611aca565b602092601f82116001146107d657928192936000926107cb575b50508160011b916000199060031b1c19161790555b60015460018101908181116107b557602091600155604051908152f35b634e487b7160e01b600052601160045260246000fd5b015190508380610783565b601f198216938360005260206000209160005b8681106108225750836001959610610809575b505050811b019055610798565b015160001960f88460031b161c191690558380806107fc565b919260206001819286850151815501940192016107e9565b634e487b7160e01b600052604160045260246000fd5b01519050868061062a565b906003840160005260206000209160005b601f19851681106108b9575092610180949260019260089583601f198116106108a0575b505050811b016003820155610642565b015160001960f88460031b161c19169055868080610890565b9192602060018192868501518155019401920161086c565b01519050848061058b565b8260005260206000209060005b601f198416811061092c5750600193949583601f19811610610913575b505050811b0181556105a0565b015160001960f88460031b161c19169055848080610906565b9091602060018192858a0151815501930191016108e9565b346101a9576101603660031901126101a9576024356001600160401b0381116101a957610975903690600401611c27565b61097d611a9e565b90610986611ab4565b906084356001600160401b0381116101a9576109a6903690600401611c9a565b936109af611cc8565b926109b8611cb8565b9460ff60e4351660e435036101a95761010435926001600160a01b03841684036101a95761012435946001600160801b03861686036101a95765ffffffffffff610144351661014435036101a957610a0e611cd8565b60043560005260026020526040600020916001600160401b03821161083a578190610a4382610a3d8654611aca565b86611d90565b600090601f8311600114610c7757600092610c6c575b50508160011b916000199060031b1c19161790555b600435600052600260205260016040600020019060018060a01b03166001600160601b0360a01b82541617905560026040600020019060018060a01b03166001600160601b0360a01b825416179055600360406000200185516001600160401b03811161083a57610ae38161056c8454611aca565b6020601f8211600114610bf9579080610bc79695949392610bec99600092610bee575b50508160011b916000199060031b1c19161790555b6004356000908152600260205260409020600501805460ff60b01b191660e43560b01b60ff60b01b1617905560406000206006810180546001600160a01b0319166001600160a01b039093169290921790915560070180546001600160b01b0319166001600160801b0392909216919091176101443560801b65ffffffffffff60801b161790556040600020600501805460ff60a01b191660a09290921b60ff60a01b16919091179055565b6040600020600501805460ff60a81b191660a89290921b60ff60a81b16919091179055565b005b015190508980610b06565b8260005260206000209760005b601f1984168110610c54575091610bec98600192610bc7989796959483601f19811610610c3b575b505050811b019055610b1b565b015160001960f88460031b161c19169055898080610c2e565b828201518a5560019099019860209283019201610c06565b013590508a80610a59565b600085815260208120909450915b601f1984168510610cc7576001945083601f19811610610cad575b505050811b019055610a6e565b0135600019600384901b60f8161c191690558a8080610ca0565b81810135835560209485019460019093019201610c85565b346101a9576101603660031901126101a9576004356001600160801b03811681036101a9576024356001600160401b0381116101a957610d23903690600401611c27565b9190610d2d611a9e565b610d35611ab4565b6084356001600160401b0381116101a957610d54903690600401611c9a565b60a4356001600160a01b038116036101a957610d6e611cb8565b60e435916001600160a01b03831683036101a95761010435936001600160801b03851685036101a95765ffffffffffff610124351661012435036101a957610144356001600160401b0381116101a957610dcc903690600401611c27565b9690976001600160801b038a1660005260026020526040600020610eba600860405192610df884611b04565b610e0181611b41565b845260018101546001600160a01b0390811660208601526002820154166040850152610e2f60038201611b41565b606085015260018060a01b03600482015416608085015260ff600582015460018060a01b03811660a0870152818160a01c1660c0870152818160a81c1660e087015260b01c1661010085015260018060a01b0360068201541661012085015265ffffffffffff60078201546001600160801b03811661014087015260801c1661016085015201611b41565b61018082015260808101516001600160a01b0316330361143557600160ff60e08301511614908115611423575b506113de576001600160801b038a16600052600260205260406000209a6040519b610f118d611b04565b610f1a81611b41565b8d5260018101546001600160a01b0390811660208f015260028201541660408e01528c610f4960038301611b41565b90606001528c600160a01b6001900360048301541690608001528c6005820154600160a01b60019003811660a08301528060a01c60ff1660c08301528060a81c60ff1660e083015260b01c60ff169061010001528c600160a01b600190036006830154169061012001528c60078201546001600160801b03811661014083015260801c65ffffffffffff16906101600152600801610fe690611b41565b6101808d01523690610ff792611c54565b8a526001600160a01b0390811660208b015290811660408a0152606089019190915260ff91909116610100880152166101208601526001600160801b031661014085015265ffffffffffff610124351661016085015261105991369190611c54565b6101808301526001600160801b0316600052600260205260406000209080519182516001600160401b03811161083a576110978161056c8454611aca565b6020601f8211600114611376578192939460009261136b575b50508160011b916000199060031b1c19161781555b60208201516001820180546001600160a01b039283166001600160a01b031991821617909155604084015160028401805491909316911617905560608201518051906001600160401b03821161083a57611126826106016003860154611aca565b602090601f83116001146112f557918061018094926008946000926112ea575b50508160011b916000199060031b1c19161760038201555b60808401516004820180546001600160a01b0319166001600160a01b0392831617905560a08581015160058401805460c08901516001600160a81b031990911692909416919091179290911b60ff60a01b169190911781556111bf9061069f565b6101208401516006820180546001600160a01b039092166001600160a01b031990921691909117905561014084015160078201805461016087015165ffffffffffff60801b60809190911b166001600160801b039093166001600160b01b031990911617919091179055019101519081516001600160401b03811161083a5761124c8161056c8454611aca565b602092601f8211600114611289579281929360009261127e575b5050600019600383901b1c191660019190911b179055005b015190508380611266565b601f198216938360005260206000209160005b8681106112d257508360019596106112b9575b505050811b019055005b015160001960f88460031b161c191690558380806112af565b9192602060018192868501518155019401920161129c565b015190508680611146565b906003840160005260206000209160005b601f1985168110611353575092610180949260019260089583601f1981161061133a575b505050811b01600382015561115e565b015160001960f88460031b161c1916905586808061132a565b91926020600181928685015181550194019201611306565b0151905084806110b0565b8260005260206000209060005b601f19841681106113c65750600193949583601f198116106113ad575b505050811b0181556110c5565b015160001960f88460031b161c191690558480806113a0565b9091602060018192858a015181550193019101611383565b60405162461bcd60e51b815260206004820152601a60248201527f6d6f72652075706461746520697320696d706f737369626c65210000000000006044820152606490fd5b60c0015160ff1660011490508c610ee7565b60405162461bcd60e51b81526020600482015260136024820152726f6e6c792063726561746f7220706c6561736560681b6044820152606490fd5b346101a95760203660031901126101a95760043561148c611d30565b5080600052600260205260ff60056040600020015460a81c16158015611631575b6115dd5760005260026020526115d960406000206114d3600860405192610df884611b04565b6101808201526040519182916020835261018061153b61150183516101a060208801526101c0870190611be7565b60208401516001600160a01b0390811660408881019190915285015116606080880191909152840151868203601f19016080880152611be7565b9160018060a01b0360808201511660a086015260018060a01b0360a08201511660c086015260ff60c08201511660e086015260ff60e08201511661010086015260ff6101008201511661012086015260018060a01b03610120820151166101408601526001600160801b036101408201511661016086015265ffffffffffff61016082015116828601520151601f19848303016101a0850152611be7565b0390f35b60405162461bcd60e51b815260206004820152602660248201527f6e6565642066696e616c5061737320616e64207365637572697479436f756e63604482015265696c5061737360d01b6064820152608490fd5b5060ff60056040600020015460a01c16156114ad565b346101a95760203660031901126101a957611660611a88565b611668611cd8565b6001600160a01b03166000908152600360205260409020805460ff19166001179055005b346101a95760203660031901126101a957600435600052600260205260406000206116b681611b41565b600182015460028301546001600160a01b0390811693918116916116dc60038201611b41565b8260048301541692600583015490806006850154169260078501549460080161170490611b41565b96604051998a996101a0808c528b0161171c91611be7565b9160208b015260408a015288810360608a015261173891611be7565b946080880152811660a08701528060a01c60ff1660c08701528060a81c60ff1660e087015260b01c60ff166101008601526101208501526001600160801b03811661014085015260801c65ffffffffffff166101608401528281036101808401526115d991611be7565b346101a95760203660031901126101a957600435600052600260205260a06040600020604051906117d282611b04565b6117db81611b41565b8252600180841b039081600182015416602084015281600282015416604084015261180860038201611b41565b60608401528160048201541690608084019182526005810154928084168686015260ff84871c1660c086015260ff8460a81c1660e086015260ff61010086019460b01c168452806006830154169461012081019586526007830154908260ff6101408301976001600160801b03938486168a5261018061189e600861016084019a65ffffffffffff809a60801c168c5201611b41565b9101525116975116955116925116925116926040519485526020850152604084015260608301526080820152f35b346101a95760203660031901126101a95760043580600052600260205260018060a01b03600560406000200154163314158061192b575b6102dc576000908152600260205260409020600501805460ff60a01b1916600160a01b179055005b50336000526003602052600160ff604060002054161415611903565b346101a95760203660031901126101a957611960611a88565b611968611cd8565b6001600160a01b03166000908152600360205260409020805460ff19169055005b346101a95760203660031901126101a957604090600435600052600260205281600020906119b681611b04565b6119bf82611b41565b815260018060a01b038091816001850154169060208101918252610180611a74600885600289015416978985019889526119fb60038201611b41565b606086015286600482015416608086015260ff600582015488811660a0880152818160a01c1660c0880152818160a81c1660e088015260b01c166101008601528660068201541661012086015265ffffffffffff60078201546001600160801b03811661014088015260801c1661016086015201611b41565b910152511691511682519182526020820152f35b600435906001600160a01b03821682036101a957565b604435906001600160a01b03821682036101a957565b606435906001600160a01b03821682036101a957565b90600182811c92168015611afa575b6020831014611ae457565b634e487b7160e01b600052602260045260246000fd5b91607f1691611ad9565b6101a081019081106001600160401b0382111761083a57604052565b90601f801991011681019081106001600160401b0382111761083a57604052565b9060405191826000825492611b5584611aca565b908184526001948581169081600014611bc45750600114611b81575b5050611b7f92500383611b20565b565b9093915060005260209081600020936000915b818310611bac575050611b7f93508201013880611b71565b85548884018501529485019487945091830191611b94565b915050611b7f94506020925060ff191682840152151560051b8201013880611b71565b919082519283825260005b848110611c13575050826000602080949584010152601f8019910116010190565b602081830181015184830182015201611bf2565b9181601f840112156101a9578235916001600160401b0383116101a957602083818601950101116101a957565b9291926001600160401b03821161083a5760405191611c7d601f8201601f191660200184611b20565b8294818452818301116101a9578281602093846000960137010152565b9080601f830112156101a957816020611cb593359101611c54565b90565b60c4359060ff821682036101a957565b60a4359060ff821682036101a957565b6000546001600160a01b03163303611cec57565b606460405162461bcd60e51b815260206004820152602060248201527f4f776e61626c653a2063616c6c6572206973206e6f7420746865206f776e65726044820152fd5b60405190611d3d82611b04565b606061018083828152600080602083015280604083015283808301528060808301528060a08301528060c08301528060e08301528061010083015280610120830152806101408301526101608201520152565b90601f8111611d9e57505050565b600091825260208220906020601f850160051c83019410611dda575b601f0160051c01915b828110611dcf57505050565b818155600101611dc3565b9092508290611dba56fea26469706673582212207a2fe561a673e1c3386891f347b33b24e0f786ce88e963b7f38475ac77f6aeb264736f6c63430008110033",
        "nonce": "0xd91",
        "accessList": []
      },
      "additionalContracts": [],
      "isFixedGasLimit": false
    },
    {
      "hash": "0xfc01c75ec3c9099e0f4641e1a8a42279b1b5bcc5e737608935f573c5a7f04903",
      "transactionType": "CREATE",
      "contractName": "Market",
      "contractAddress": "0x87411145423fDf9123040799F9Ff894153339a75",
      "function": null,
      "arguments": [
        "0x1AC65dF2A1d1aC5B66C32dAF500fE5218f6CeA7B"
      ],
      "transaction": {
        "type": "0x02",
        "from": "0xf39fd6e51aad88f6f4ce6ab8827279cfffb92266",
        "gas": "0x73fc6",
        "value": "0x0",
        "data": "0x60803461007457601f6105c338819003918201601f19168301916001600160401b038311848410176100795780849260209460405283398101031261007457516001600160a01b0381169081900361007457600080546001600160a01b03191691909117905560405161053390816100908239f35b600080fd5b634e487b7160e01b600052604160045260246000fdfe608060408181526004918236101561001657600080fd5b600090813560e01c9081633752a5c11461009b575080637b1039991461006f5763efef39a11461004557600080fd5b3461006c57602036600319011261006c57506100636020923561022a565b90519015158152f35b80fd5b509034610097578160031936011261009757905490516001600160a01b039091168152602090f35b5080fd5b84848492346101b957816003193601126101b9576001600160a01b03602435818116908190036101b557843586526001602052838620908652602052828520916100e4816101bd565b81835460ff81161515835260081c16602082015260018301548482015260a060028401549283606084015286600386015495608085019687520154169101521561016757514211610133578280f35b906020606492519162461bcd60e51b8352820152600e60248201526d115e1c1a5c99590814195c9a5bd960921b6044820152fd5b815162461bcd60e51b8152602081850152602260248201527f506c6561736520707572636861736520696e74656e74206170706c696361746960448201526137b760f11b6064820152608490fd5b8580fd5b8380fd5b60c0810190811067ffffffffffffffff8211176101d957604052565b634e487b7160e01b600052604160045260246000fd5b90601f8019910116810190811067ffffffffffffffff8211176101d957604052565b51906001600160a01b038216820361022557565b600080fd5b9060018060a01b0360009060248183541660a060409182519384809263326c437960e01b82528a60048301525afa80156104f35784918591869187958892610460575b508781519661027b886101bd565b81885260209081890194838652848a019684885260608b0198858a5260808c019a868c5260a08d019e8f5260ff16156103de578c6001600160801b039116918d8851946323b872dd60e01b86523360048701521660248501521691826044820152848160648189865af180156103d45761039d575b509065ffffffffffff929160018c52875287524288521642019b8c4211610389576004999a9b9c8852825260018152828220903383525220945115159060ff865491610100600160a81b03905160081b169216906affffffffffffffffffffff60a81b1617178455516001840155516002830155516003820155019151166bffffffffffffffffffffffff60a01b825416179055600190565b634e487b7160e01b83526011600452602483fd5b8481813d83116103cd575b6103b281836101ef565b810103126101b55751801515036103c957386102f0565b8480fd5b503d6103a8565b87513d88823e3d90fd5b50505050600498999a9b4287526000198852825260018152828220903383525220945115159060ff865491610100600160a81b03905160081b169216906affffffffffffffffffffff60a81b1617178455516001840155516002830155516003820155019151166bffffffffffffffffffffffff60a01b825416179055600190565b9450945050505060a0813d82116104eb575b8161047f60a093836101ef565b810103126101b95780519160ff831683036103c9576104a060208301610211565b9181810151916001600160801b03831683036104e75760608201519165ffffffffffff831683036104e35760806104d79101610211565b9493929194903861026d565b8780fd5b8680fd5b3d9150610472565b81513d86823e3d90fdfea26469706673582212205b9686e22d4b231bbebf09e1fe0f9ab8fd635fb20db1f7e2dca7b9448b1694ff64736f6c634300081100330000000000000000000000001ac65df2a1d1ac5b66c32daf500fe5218f6cea7b",
        "nonce": "0xd92",
        "accessList": []
      },
      "additionalContracts": [],
      "isFixedGasLimit": false
    },
    {
      "hash": "0x6d47d4eb2ffa762765689fc2e43ad1952d5ba516af9422c669d06f6523a28852",
      "transactionType": "CALL",
      "contractName": "MarketRegistry",
      "contractAddress": "0x1AC65dF2A1d1aC5B66C32dAF500fE5218f6CeA7B",
      "function": "registerSecurityCouncil(address)",
      "arguments": [
        "0x70997970C51812dc3A010C7d01b50e0d17dc79C8"
      ],
      "transaction": {
        "type": "0x02",
        "from": "0xf39fd6e51aad88f6f4ce6ab8827279cfffb92266",
        "to": "0x1ac65df2a1d1ac5b66c32daf500fe5218f6cea7b",
        "gas": "0xf8d2",
        "value": "0x0",
        "data": "0x43110efa00000000000000000000000070997970c51812dc3a010c7d01b50e0d17dc79c8",
        "nonce": "0xd93",
        "accessList": []
      },
      "additionalContracts": [],
      "isFixedGasLimit": false
    },
    {
      "hash": "0x8ad8a8aa6b58099e5c7cb350ac26964b6d3f5e2950ce7ba6c62d1f4533679017",
      "transactionType": "CREATE",
      "contractName": "App",
      "contractAddress": "0x663F3ad617193148711d28f5334eE4Ed07016602",
      "function": null,
      "arguments": null,
      "transaction": {
        "type": "0x02",
        "from": "0x3c44cdddb6a900fa2b585dd299e03d12fa4293bc",
        "gas": "0xafa95",
        "value": "0x0",
        "data": "0x6080806040523461005b5760008054336001600160a01b0319821681178355916001600160a01b03909116907f8be0079c531659141344cd1fd0a4f28419497f9722a3daafe3b4186f6b6457e09080a361089790816100618239f35b600080fdfe6040608081526004908136101561001557600080fd5b600091823560e01c908163055227a1146105e657816320e3dbd4146105a1578163715018a6146105445781638da5cb5b1461051c578163b504e6b114610162578163f2fde38b1461009b575063f887ea401461007057600080fd5b3461009757816003193601126100975760025490516001600160a01b039091168152602090f35b5080fd5b90503461015e57602036600319011261015e576100b661076a565b906100bf610785565b6001600160a01b0391821692831561010c57505082546001600160a01b0319811683178455167f8be0079c531659141344cd1fd0a4f28419497f9722a3daafe3b4186f6b6457e08380a380f35b906020608492519162461bcd60e51b8352820152602660248201527f4f776e61626c653a206e6577206f776e657220697320746865207a65726f206160448201526564647265737360d01b6064820152fd5b8280fd5b9190503461015e57602090816003193601126105185782359067ffffffffffffffff93848311610514573660238401121561051457828101359085821161051057602493368584830101116105085782601411610508578481013560601c928060281161050c5760481161050857604c8101359284516323b872dd60e01b81523384820152308782015284604482015287816064818d865af180156104fe576104e1575b50600254855163095ea7b360e01b8082526001600160a01b039283168683015260001989830152919591939089816044818f885af180156104d7576104ba575b50828b52600189526038878c2091013560601c8b528852858a2086519061026c826107dd565b87518154808252918d528a8d20909182908c8201908f8e5b8282106104a15750505061029a9250038261080f565b808252511561047057856002541690514260011b4281046002144215171561045e57908c949392918951936338ed173960e01b855260a485019089860152868c86015260a0604486015282518091528c60c486019301908d88905b82821061043857505050509183868180948296336064840152608483015203925af1998a1561042e57899a999697989961038e575b505081604494959660025416988851998a97889687528601528401525af19081156103855750610358578280f35b8161037792903d1061037e575b61036f818361080f565b810190610849565b5038808280f35b503d610365565b513d85823e3d90fd5b91949693955091503d808b843e6103a5818461080f565b8201918981840312610426578051918211610426570181601f8201121561042a5780519089806103d484610831565b6103e08b51918261080f565b848152019260051b82010192831161042657918a93918a809897969401905b82821061041357509695949392919661032a565b815181528b988d965091820191016103ff565b8a80fd5b8980fd5b87513d85823e3d90fd5b83969798995060019294958d829395511681520195019101918f9796959493928e6102f5565b634e487b7160e01b8d5260118752898dfd5b865162461bcd60e51b81528086018a9052600c818a01526b0dcdee840e6cae840e0c2e8d60a31b6044820152606490fd5b85548d168452600195860195879550930192018e610284565b6104d0908a3d8c1161037e5761036f818361080f565b5038610246565b88513d8e823e3d90fd5b6104f790883d8a1161037e5761036f818361080f565b5038610206565b86513d8c823e3d90fd5b8780fd5b8880fd5b8680fd5b8580fd5b8380fd5b505034610097578160031936011261009757905490516001600160a01b039091168152602090f35b833461059e578060031936011261059e5761055d610785565b80546001600160a01b03198116825581906001600160a01b03167f8be0079c531659141344cd1fd0a4f28419497f9722a3daafe3b4186f6b6457e08280a380f35b80fd5b833461059e57602036600319011261059e576105bb61076a565b6105c3610785565b60018060a01b03166bffffffffffffffffffffffff60a01b600254161760025580f35b9190503461015e57606036600319011261015e5761060261076a565b6001600160a01b036024358181169490859003610514576044359067ffffffffffffffff94858311610508573660238401121561050857828201359486861161050c5760248660051b8501019536871161042a57908591610661610785565b83519761066d896107dd565b6060895261067a82610831565b916106878651938461080f565b82526020966024018783015b82821061074457505050875216885260019687845281892090895283528720935190815195861161073157680100000000000000008611610731575081908454868655808710610707575b500192865280862091865b8581106106f4578780f35b84518216848201559382019386016106e9565b8589528787848b2092830192015b8281106107235750506106de565b8a8155859450899101610715565b634e487b7160e01b885260419052602487fd5b9080929394955035898116810361076657815288949392918801908801610693565b8d80fd5b600435906001600160a01b038216820361078057565b600080fd5b6000546001600160a01b0316330361079957565b606460405162461bcd60e51b815260206004820152602060248201527f4f776e61626c653a2063616c6c6572206973206e6f7420746865206f776e65726044820152fd5b6020810190811067ffffffffffffffff8211176107f957604052565b634e487b7160e01b600052604160045260246000fd5b90601f8019910116810190811067ffffffffffffffff8211176107f957604052565b67ffffffffffffffff81116107f95760051b60200190565b9081602091031261078057518015158103610780579056fea2646970667358221220fd544b4d1d82b6b7576786bc666eeaea4046bd9d91043f6756a26cb0ccff640564736f6c63430008110033",
        "nonce": "0x0",
        "accessList": []
      },
      "additionalContracts": [],
      "isFixedGasLimit": false
    },
    {
      "hash": "0x9f1e8fd347955dd03a208ef0e869f2312dd3360bda89f84c2760ef520ab55247",
      "transactionType": "CREATE",
      "contractName": "Constraints",
      "contractAddress": "0x2E983A1Ba5e8b38AAAeC4B440B9dDcFBf72E15d1",
      "function": null,
      "arguments": null,
      "transaction": {
        "type": "0x02",
        "from": "0x3c44cdddb6a900fa2b585dd299e03d12fa4293bc",
        "gas": "0x6a9ab",
        "value": "0x0",
        "data": "0x608080604052346100165761051c908161001c8239f35b600080fdfe6080604081815260048036101561001557600080fd5b600092833560e01c90816335a1a96c146101da5750635beaf52c1461003957600080fd5b34610183578160031936011261018357610051610442565b67ffffffffffffffff936024358581116101d657610072903690850161045d565b80601495929511610183576028116101d6578451936370a0823160e01b9384865260018060a01b031680838701526020948587602481863560601c5afa9687156101cc578597610198575b50906024869260148a519586948593845288840152013560601c5afa90811561018e57839161015d575b50855194848601528585015284845260608401958487109087111761014a5750848452818552825191826080850152815b83811061013657505082820160a00152601f01601f19168101030190f35b808291860160a08382015191015201610118565b634e487b7160e01b825260419052602490fd5b90508381813d8311610187575b610174818361048b565b810103126101835751386100e7565b8280fd5b503d61016a565b86513d85823e3d90fd5b9096508581813d83116101c5575b6101b0818361048b565b810103126101c157519560246100bd565b8480fd5b503d6101a6565b88513d87823e3d90fd5b5080fd5b90503461043e57606036600319011261043e576101f5610442565b9360249167ffffffffffffffff90833582811161043e57610219903690870161045d565b9390926044359081116101d657610233903690880161045d565b989094602099808b1161043e578060341161043e578060541161043e578060681161043e5760881161018357808a116101835788116101d6576370a0823160e01b8084526001600160a01b03909116878401819052898488818984013560601c5afa938415610434578394610405575b5088519182528782015288818781605489013560601c5afa9182156103fa5790818a92936103c2575b50506102dc6102e59385356104c3565b930135906104c3565b908235106103805760348201351161033f576068429101351161030b5750505160018152f35b60649360119293519362461bcd60e51b85528401528201527030b63932b0b23c9032bc3834b932b2171760791b6044820152fd5b50606493601b9293519362461bcd60e51b85528401528201527f746f6f206c6974746c65206f757470757420616d6f756e7421212100000000006044820152fd5b845162461bcd60e51b81528085018790526018818501527f746f6f206d75636820696e70757420616d6f756e7421212100000000000000006044820152606490fd5b9190809350813d83116103f3575b6103da818361048b565b810103126103f0575051876102dc6102e56102cc565b80fd5b503d6103d0565b8851903d90823e3d90fd5b9093508981813d831161042d575b61041d818361048b565b81010312610183575192386102a3565b503d610413565b89513d85823e3d90fd5b8380fd5b600435906001600160a01b038216820361045857565b600080fd5b9181601f840112156104585782359167ffffffffffffffff8311610458576020838186019501011161045857565b90601f8019910116810190811067ffffffffffffffff8211176104ad57604052565b634e487b7160e01b600052604160045260246000fd5b919082039182116104d057565b634e487b7160e01b600052601160045260246000fdfea2646970667358221220b84ab8008946aa20a58173c7127879a8e36fa0cd83f7d7f7925716d17cc8aa3c64736f6c63430008110033",
        "nonce": "0x1",
        "accessList": []
      },
      "additionalContracts": [],
      "isFixedGasLimit": false
    },
    {
      "hash": "0x29c2f71b6a0474bd8baccd484adf80793cef26a98503eea933bb0c5cf23337d5",
      "transactionType": "CALL",
      "contractName": "MarketRegistry",
      "contractAddress": "0x1AC65dF2A1d1aC5B66C32dAF500fE5218f6CeA7B",
      "function": "registerAppMetadata(string,address,address,string,address,uint8,address,uint128,uint48,string):(uint256)",
      "arguments": [
        "testApp",
        "0x663F3ad617193148711d28f5334eE4Ed07016602",
        "0x2E983A1Ba5e8b38AAAeC4B440B9dDcFBf72E15d1",
        "{\"Inputdata\": [{\"name\": \"Input Amount\",\"uitype\": \"text\",\"datatype\": \"uint256\"},{\"name\": \"Input Asset\",\"uitype\": \"text\",\"datatype\": \"string\"},{\"name\": \"Output Amount\",\"uitype\": \"text\",\"datatype\": \"uint256\"},{\"name\": \"Output Asset\",\"uitype\": \"text\",\"datatype\": \"string\"}]}",
        "0x70997970C51812dc3A010C7d01b50e0d17dc79C8",
        "1",
        "0xaf88d065e77c8cC2239327C5EDb3A432268e5831",
        "10000000",
        "604800",
        "http://127.0.0.1:8001"
      ],
      "transaction": {
        "type": "0x02",
        "from": "0x3c44cdddb6a900fa2b585dd299e03d12fa4293bc",
        "to": "0x1ac65df2a1d1ac5b66c32daf500fe5218f6cea7b",
        "gas": "0xa26bd",
        "value": "0x0",
        "data": "0x6c7da6a50000000000000000000000000000000000000000000000000000000000000140000000000000000000000000663f3ad617193148711d28f5334ee4ed070166020000000000000000000000002e983a1ba5e8b38aaaec4b440b9ddcfbf72e15d1000000000000000000000000000000000000000000000000000000000000018000000000000000000000000070997970c51812dc3a010c7d01b50e0d17dc79c80000000000000000000000000000000000000000000000000000000000000001000000000000000000000000af88d065e77c8cc2239327c5edb3a432268e583100000000000000000000000000000000000000000000000000000000009896800000000000000000000000000000000000000000000000000000000000093a8000000000000000000000000000000000000000000000000000000000000002c000000000000000000000000000000000000000000000000000000000000000077465737441707000000000000000000000000000000000000000000000000000000000000000000000000000000000000000000000000000000000000000010e7b22496e70757464617461223a205b7b226e616d65223a2022496e70757420416d6f756e74222c22756974797065223a202274657874222c226461746174797065223a202275696e74323536227d2c7b226e616d65223a2022496e707574204173736574222c22756974797065223a202274657874222c226461746174797065223a2022737472696e67227d2c7b226e616d65223a20224f757470757420416d6f756e74222c22756974797065223a202274657874222c226461746174797065223a202275696e74323536227d2c7b226e616d65223a20224f7574707574204173736574222c22756974797065223a202274657874222c226461746174797065223a2022737472696e67227d5d7d0000000000000000000000000000000000000000000000000000000000000000000000000000000000000000000000000015687474703a2f2f3132372e302e302e313a383030310000000000000000000000",
        "nonce": "0x2",
        "accessList": []
      },
      "additionalContracts": [],
      "isFixedGasLimit": false
    },
    {
      "hash": "0x8e05b273a6ff02c82456a05e84d3a1c2ee9bea58edae5ae6bd72ec39763f50be",
      "transactionType": "CALL",
      "contractName": "MarketRegistry",
      "contractAddress": "0x1AC65dF2A1d1aC5B66C32dAF500fE5218f6CeA7B",
      "function": "approveSecurityCouncil(uint256)",
      "arguments": [
        "0"
      ],
      "transaction": {
        "type": "0x02",
        "from": "0x70997970c51812dc3a010c7d01b50e0d17dc79c8",
        "to": "0x1ac65df2a1d1ac5b66c32daf500fe5218f6cea7b",
        "gas": "0x6b9d",
        "value": "0x0",
        "data": "0x0b9568e90000000000000000000000000000000000000000000000000000000000000000",
        "nonce": "0x13",
        "accessList": []
      },
      "additionalContracts": [],
      "isFixedGasLimit": false
    },
    {
      "hash": "0x5f7472e023c3ec96c0c1350f35008e48f6aa875ba906f50cfb968fd36ce40bcb",
      "transactionType": "CALL",
      "contractName": "MarketRegistry",
      "contractAddress": "0x1AC65dF2A1d1aC5B66C32dAF500fE5218f6CeA7B",
      "function": "approveFinalPass(uint256)",
      "arguments": [
        "0"
      ],
      "transaction": {
        "type": "0x02",
        "from": "0xf39fd6e51aad88f6f4ce6ab8827279cfffb92266",
        "to": "0x1ac65df2a1d1ac5b66c32daf500fe5218f6cea7b",
        "gas": "0x9bda",
        "value": "0x0",
        "data": "0xbeb1744b0000000000000000000000000000000000000000000000000000000000000000",
        "nonce": "0xd94",
        "accessList": []
      },
      "additionalContracts": [],
      "isFixedGasLimit": false
    }
  ],
  "receipts": [
    {
      "transactionHash": "0xc75ca3fb5c9ad26bc960e8b9c97a4910bf09daf5b24b1d87f122d65b2deafc6b",
      "transactionIndex": "0x0",
      "blockHash": "0xd49207b139f849964aa768d224a1ed7f9d7284d27d336abdf75d138f7bee5dc4",
      "blockNumber": "0x7acd44e",
      "from": "0x90F79bf6EB2c4f870365E785982E1f101E93b906",
      "to": "0x389fBf457a6BA8dFeD6b8F2C04899feA5ef92f12",
      "cumulativeGasUsed": "0x5208",
      "gasUsed": "0x5208",
      "contractAddress": null,
      "logs": [],
      "status": "0x1",
      "logsBloom": "0x00000000000000000000000000000000000000000000000000000000000000000000000000000000000000000000000000000000000000000000000000000000000000000000000000000000000000000000000000000000000000000000000000000000000000000000000000000000000000000000000000000000000000000000000000000000000000000000000000000000000000000000000000000000000000000000000000000000000000000000000000000000000000000000000000000000000000000000000000000000000000000000000000000000000000000000000000000000000000000000000000000000000000000000000000000000",
      "type": "0x2",
      "effectiveGasPrice": "0xb8c63f00"
    },
    {
      "transactionHash": "0x83f3163ee2243f1d3dc5cd6b2bada24c5209813f36bd2710e2d41248ce4e3e4c",
      "transactionIndex": "0x0",
      "blockHash": "0x945670f71ce835fe38ef5e49e045e5ad574f96eb3c198abab95a0e91d12051af",
      "blockNumber": "0x7acd44f",
      "from": "0x90F79bf6EB2c4f870365E785982E1f101E93b906",
      "to": "0x5FF137D4b0FDCD49DcA30c7CF57E578a026d2789",
      "cumulativeGasUsed": "0x417c0",
      "gasUsed": "0x417c0",
      "contractAddress": null,
      "logs": [
        {
          "address": "0xd9AB5096a832b9ce79914329DAEE236f8Eea0390",
          "topics": [
            "0x381c0d11398486654573703c51ee8210ce9461764d133f9f0e53b6a539705331",
            "0x000000000000000000000000389fbf457a6ba8dfed6b8f2c04899fea5ef92f12",
            "0x0000000000000000000000000000000000000000000000000000000000000000",
            "0x00000000000000000000000090f79bf6eb2c4f870365e785982e1f101e93b906"
          ],
          "data": "0x",
          "blockHash": "0x945670f71ce835fe38ef5e49e045e5ad574f96eb3c198abab95a0e91d12051af",
          "blockNumber": "0x7acd44f",
          "transactionHash": "0x83f3163ee2243f1d3dc5cd6b2bada24c5209813f36bd2710e2d41248ce4e3e4c",
          "transactionIndex": "0x0",
          "logIndex": "0x0",
          "transactionLogIndex": "0x0",
          "removed": false
        },
        {
          "address": "0x5de4839a76cf55d0c90e2061ef4386d962E15ae3",
          "topics": [
            "0x09e48df7857bd0c1e0d31bb8a85d42cf1874817895f171c917f6ee2cea73ec20",
            "0x000000000000000000000000389fbf457a6ba8dfed6b8f2c04899fea5ef92f12",
            "0x000000000000000000000000f048ad83cb2dfd6037a43902a2a5be04e53cd2eb"
          ],
          "data": "0x",
          "blockHash": "0x945670f71ce835fe38ef5e49e045e5ad574f96eb3c198abab95a0e91d12051af",
          "blockNumber": "0x7acd44f",
          "transactionHash": "0x83f3163ee2243f1d3dc5cd6b2bada24c5209813f36bd2710e2d41248ce4e3e4c",
          "transactionIndex": "0x0",
          "logIndex": "0x1",
          "transactionLogIndex": "0x1",
          "removed": false
        },
        {
          "address": "0x5FF137D4b0FDCD49DcA30c7CF57E578a026d2789",
          "topics": [
            "0xd51a9c61267aa6196961883ecf5ff2da6619c37dac0fa92122513fb32c032d2d",
            "0x495de3be5832dcfacd8574be7026ed2c40bd62c91509bd34a99f7af7eaedfc52",
            "0x000000000000000000000000389fbf457a6ba8dfed6b8f2c04899fea5ef92f12"
          ],
          "data": "0x0000000000000000000000005de4839a76cf55d0c90e2061ef4386d962e15ae30000000000000000000000000000000000000000000000000000000000000000",
          "blockHash": "0x945670f71ce835fe38ef5e49e045e5ad574f96eb3c198abab95a0e91d12051af",
          "blockNumber": "0x7acd44f",
          "transactionHash": "0x83f3163ee2243f1d3dc5cd6b2bada24c5209813f36bd2710e2d41248ce4e3e4c",
          "transactionIndex": "0x0",
          "logIndex": "0x2",
          "transactionLogIndex": "0x2",
          "removed": false
        },
        {
          "address": "0x5FF137D4b0FDCD49DcA30c7CF57E578a026d2789",
          "topics": [
            "0x2da466a7b24304f47e87fa2e1e5a81b9831ce54fec19055ce277ca2f39ba42c4",
            "0x000000000000000000000000389fbf457a6ba8dfed6b8f2c04899fea5ef92f12"
          ],
          "data": "0x0000000000000000000000000000000000000000000000000000126ad20e8400",
          "blockHash": "0x945670f71ce835fe38ef5e49e045e5ad574f96eb3c198abab95a0e91d12051af",
          "blockNumber": "0x7acd44f",
          "transactionHash": "0x83f3163ee2243f1d3dc5cd6b2bada24c5209813f36bd2710e2d41248ce4e3e4c",
          "transactionIndex": "0x0",
          "logIndex": "0x3",
          "transactionLogIndex": "0x3",
          "removed": false
        },
        {
          "address": "0x5FF137D4b0FDCD49DcA30c7CF57E578a026d2789",
          "topics": [
            "0xbb47ee3e183a558b1a2ff0874b079f3fc5478b7454eacf2bfc5af2ff5878f972"
          ],
          "data": "0x",
          "blockHash": "0x945670f71ce835fe38ef5e49e045e5ad574f96eb3c198abab95a0e91d12051af",
          "blockNumber": "0x7acd44f",
          "transactionHash": "0x83f3163ee2243f1d3dc5cd6b2bada24c5209813f36bd2710e2d41248ce4e3e4c",
          "transactionIndex": "0x0",
          "logIndex": "0x4",
          "transactionLogIndex": "0x4",
          "removed": false
        },
        {
          "address": "0x5FF137D4b0FDCD49DcA30c7CF57E578a026d2789",
          "topics": [
            "0x49628fd1471006c1482da88028e9ce4dbb080b815c9b0344d39e5a8e6ec1419f",
            "0x495de3be5832dcfacd8574be7026ed2c40bd62c91509bd34a99f7af7eaedfc52",
            "0x000000000000000000000000389fbf457a6ba8dfed6b8f2c04899fea5ef92f12",
            "0x0000000000000000000000000000000000000000000000000000000000000000"
          ],
          "data": "0x0000000000000000000000000000000000000000000000000000000000000000000000000000000000000000000000000000000000000000000000000000000100000000000000000000000000000000000000000000000000000053eb45b66000000000000000000000000000000000000000000000000000000000000affdb",
          "blockHash": "0x945670f71ce835fe38ef5e49e045e5ad574f96eb3c198abab95a0e91d12051af",
          "blockNumber": "0x7acd44f",
          "transactionHash": "0x83f3163ee2243f1d3dc5cd6b2bada24c5209813f36bd2710e2d41248ce4e3e4c",
          "transactionIndex": "0x0",
          "logIndex": "0x5",
          "transactionLogIndex": "0x5",
          "removed": false
        }
      ],
      "status": "0x1",
      "logsBloom": "0x000004000000000000000000000000000000000000000000000000000000000002082000000000000002000100000000001000000000000000000210000000000000000000000000000000000000000000000000000000200000000000002000000000000a0000000000000000000800000000010000000000000000000200000000000000000000000000000080000000000300000400000400000000000000000000100000100000400000000000000000400100000000000002000000000000000000000000000001400000000000400004000000000000000020000420000050000000000000000010000200000000000000000000000080000002202000",
      "type": "0x2",
      "effectiveGasPrice": "0xb80782e1"
    },
    {
      "transactionHash": "0x36d2186bfaefcee042afaa2be8ecd9e403419f232f2db7f0cc9bfc155d821cfa",
      "transactionIndex": "0x0",
      "blockHash": "0xe96e189e38e6e79938e262355ef90397b297d6bca09e21649d99f0f364ca7bd8",
      "blockNumber": "0x7acd450",
      "from": "0xf39Fd6e51aad88F6F4ce6aB8827279cffFb92266",
      "to": null,
      "cumulativeGasUsed": "0x1a9820",
      "gasUsed": "0x1a9820",
      "contractAddress": "0x1AC65dF2A1d1aC5B66C32dAF500fE5218f6CeA7B",
      "logs": [
        {
          "address": "0x1AC65dF2A1d1aC5B66C32dAF500fE5218f6CeA7B",
          "topics": [
            "0x8be0079c531659141344cd1fd0a4f28419497f9722a3daafe3b4186f6b6457e0",
            "0x0000000000000000000000000000000000000000000000000000000000000000",
            "0x000000000000000000000000f39fd6e51aad88f6f4ce6ab8827279cfffb92266"
          ],
          "data": "0x",
          "blockHash": "0xe96e189e38e6e79938e262355ef90397b297d6bca09e21649d99f0f364ca7bd8",
          "blockNumber": "0x7acd450",
          "transactionHash": "0x36d2186bfaefcee042afaa2be8ecd9e403419f232f2db7f0cc9bfc155d821cfa",
          "transactionIndex": "0x0",
          "logIndex": "0x0",
          "transactionLogIndex": "0x0",
          "removed": false
        }
      ],
      "status": "0x1",
      "logsBloom": "0x00000000000000000000000000000000000000000000000000800000000000000000000000000000000000000000000000000000000000000000000000000000000000000000000000000000000000000001000000000000000000000000000000000000020000000000000100000800000000000000000000000000000000400000000000000000000000000000000000000000000000000000000000000000000000000000000000000000000000000400000000000000000000000010000000000000000000200000000000000000000000002001000000000000000020000000000000000000000000000000000000000000000000000000000000000000",
      "type": "0x2",
      "effectiveGasPrice": "0xb7609e45"
    },
    {
      "transactionHash": "0xfc01c75ec3c9099e0f4641e1a8a42279b1b5bcc5e737608935f573c5a7f04903",
      "transactionIndex": "0x0",
      "blockHash": "0x73d184d65ca5934ea5a8ca4b6d603b337a87aaa0249493dad0124baed14d1307",
      "blockNumber": "0x7acd451",
      "from": "0xf39Fd6e51aad88F6F4ce6aB8827279cffFb92266",
      "to": null,
      "cumulativeGasUsed": "0x593e5",
      "gasUsed": "0x593e5",
      "contractAddress": "0x87411145423fDf9123040799F9Ff894153339a75",
      "logs": [],
      "status": "0x1",
      "logsBloom": "0x00000000000000000000000000000000000000000000000000000000000000000000000000000000000000000000000000000000000000000000000000000000000000000000000000000000000000000000000000000000000000000000000000000000000000000000000000000000000000000000000000000000000000000000000000000000000000000000000000000000000000000000000000000000000000000000000000000000000000000000000000000000000000000000000000000000000000000000000000000000000000000000000000000000000000000000000000000000000000000000000000000000000000000000000000000000",
      "type": "0x2",
      "effectiveGasPrice": "0xb6ce963d"
    },
    {
      "transactionHash": "0x6d47d4eb2ffa762765689fc2e43ad1952d5ba516af9422c669d06f6523a28852",
      "transactionIndex": "0x0",
      "blockHash": "0xd9302749c4a5a0930a4f286060565342028dcb3b10f345d051685a7cec368f70",
      "blockNumber": "0x7acd452",
      "from": "0xf39Fd6e51aad88F6F4ce6aB8827279cffFb92266",
      "to": "0x1AC65dF2A1d1aC5B66C32dAF500fE5218f6CeA7B",
      "cumulativeGasUsed": "0xb425",
      "gasUsed": "0xb425",
      "contractAddress": null,
      "logs": [],
      "status": "0x1",
      "logsBloom": "0x00000000000000000000000000000000000000000000000000000000000000000000000000000000000000000000000000000000000000000000000000000000000000000000000000000000000000000000000000000000000000000000000000000000000000000000000000000000000000000000000000000000000000000000000000000000000000000000000000000000000000000000000000000000000000000000000000000000000000000000000000000000000000000000000000000000000000000000000000000000000000000000000000000000000000000000000000000000000000000000000000000000000000000000000000000000",
      "type": "0x2",
      "effectiveGasPrice": "0xb64ecf36"
    },
    {
      "transactionHash": "0x8ad8a8aa6b58099e5c7cb350ac26964b6d3f5e2950ce7ba6c62d1f4533679017",
      "transactionIndex": "0x0",
      "blockHash": "0x29fefef83d1989124d517525644538242eb40d29235e36c6d7d8931641604260",
      "blockNumber": "0x7acd453",
      "from": "0x3C44CdDdB6a900fa2b585dd299e03d12FA4293BC",
      "to": null,
      "cumulativeGasUsed": "0x871fd",
      "gasUsed": "0x871fd",
      "contractAddress": "0x663F3ad617193148711d28f5334eE4Ed07016602",
      "logs": [
        {
          "address": "0x663F3ad617193148711d28f5334eE4Ed07016602",
          "topics": [
            "0x8be0079c531659141344cd1fd0a4f28419497f9722a3daafe3b4186f6b6457e0",
            "0x0000000000000000000000000000000000000000000000000000000000000000",
            "0x0000000000000000000000003c44cdddb6a900fa2b585dd299e03d12fa4293bc"
          ],
          "data": "0x",
          "blockHash": "0x29fefef83d1989124d517525644538242eb40d29235e36c6d7d8931641604260",
          "blockNumber": "0x7acd453",
          "transactionHash": "0x8ad8a8aa6b58099e5c7cb350ac26964b6d3f5e2950ce7ba6c62d1f4533679017",
          "transactionIndex": "0x0",
          "logIndex": "0x0",
          "transactionLogIndex": "0x0",
          "removed": false
        }
      ],
      "status": "0x1",
      "logsBloom": "0x00000000000000000000000000000000000000004000000000800000000000000000000000000000000000000000000000000000000000000000000000100000000000000000000000000000000000000001000000000000000000000000000000000000020000000000000000000800000800000000000000000000000000400000000000000000000000000000000000000000000000000000000000000000000000000000200000000000000000000000000000000000000000000000000000000000008000001000000000000000000000000000000000000000000020000000000000000000000000000000000000000000000000000000000000000000",
      "type": "0x2",
      "effectiveGasPrice": "0xb5df0110"
    },
    {
      "transactionHash": "0x9f1e8fd347955dd03a208ef0e869f2312dd3360bda89f84c2760ef520ab55247",
      "transactionIndex": "0x0",
      "blockHash": "0xe679ef64ff04ab1a2ff91b217ee9be401b866552776353415575a8e5fc234858",
      "blockNumber": "0x7acd454",
      "from": "0x3C44CdDdB6a900fa2b585dd299e03d12FA4293BC",
      "to": null,
      "cumulativeGasUsed": "0x52062",
      "gasUsed": "0x52062",
      "contractAddress": "0x2E983A1Ba5e8b38AAAeC4B440B9dDcFBf72E15d1",
      "logs": [],
      "status": "0x1",
      "logsBloom": "0x00000000000000000000000000000000000000000000000000000000000000000000000000000000000000000000000000000000000000000000000000000000000000000000000000000000000000000000000000000000000000000000000000000000000000000000000000000000000000000000000000000000000000000000000000000000000000000000000000000000000000000000000000000000000000000000000000000000000000000000000000000000000000000000000000000000000000000000000000000000000000000000000000000000000000000000000000000000000000000000000000000000000000000000000000000000",
      "type": "0x2",
      "effectiveGasPrice": "0xb57d2caf"
    },
    {
      "transactionHash": "0x29c2f71b6a0474bd8baccd484adf80793cef26a98503eea933bb0c5cf23337d5",
      "transactionIndex": "0x0",
      "blockHash": "0x892226b357d6a49d55320810b0869226a53c3ec23d780de9f2eaf698d8acc7a6",
      "blockNumber": "0x7acd455",
      "from": "0x3C44CdDdB6a900fa2b585dd299e03d12FA4293BC",
      "to": "0x1AC65dF2A1d1aC5B66C32dAF500fE5218f6CeA7B",
      "cumulativeGasUsed": "0x6f0eb",
      "gasUsed": "0x6f0eb",
      "contractAddress": null,
      "logs": [],
      "status": "0x1",
      "logsBloom": "0x00000000000000000000000000000000000000000000000000000000000000000000000000000000000000000000000000000000000000000000000000000000000000000000000000000000000000000000000000000000000000000000000000000000000000000000000000000000000000000000000000000000000000000000000000000000000000000000000000000000000000000000000000000000000000000000000000000000000000000000000000000000000000000000000000000000000000000000000000000000000000000000000000000000000000000000000000000000000000000000000000000000000000000000000000000000",
      "type": "0x2",
      "effectiveGasPrice": "0xb52792da"
    },
    {
      "transactionHash": "0x8e05b273a6ff02c82456a05e84d3a1c2ee9bea58edae5ae6bd72ec39763f50be",
      "transactionIndex": "0x0",
      "blockHash": "0x3c630215029b71ff1001e45099cbae4118ca8a63aac952901cd100b5d1fc4841",
      "blockNumber": "0x7acd456",
      "from": "0x70997970C51812dc3A010C7d01b50e0d17dc79C8",
      "to": "0x1AC65dF2A1d1aC5B66C32dAF500fE5218f6CeA7B",
      "cumulativeGasUsed": "0x6855",
      "gasUsed": "0x6855",
      "contractAddress": null,
      "logs": [],
      "status": "0x1",
      "logsBloom": "0x00000000000000000000000000000000000000000000000000000000000000000000000000000000000000000000000000000000000000000000000000000000000000000000000000000000000000000000000000000000000000000000000000000000000000000000000000000000000000000000000000000000000000000000000000000000000000000000000000000000000000000000000000000000000000000000000000000000000000000000000000000000000000000000000000000000000000000000000000000000000000000000000000000000000000000000000000000000000000000000000000000000000000000000000000000000",
      "type": "0x2",
      "effectiveGasPrice": "0xb4dcac3f"
    },
    {
      "transactionHash": "0x5f7472e023c3ec96c0c1350f35008e48f6aa875ba906f50cfb968fd36ce40bcb",
      "transactionIndex": "0x0",
      "blockHash": "0x9240338b8bcb7ffacd1458d0398594ee1c23c39fef1a2ef7980d7c24c1985042",
      "blockNumber": "0x7acd457",
      "from": "0xf39Fd6e51aad88F6F4ce6aB8827279cffFb92266",
      "to": "0x1AC65dF2A1d1aC5B66C32dAF500fE5218f6CeA7B",
      "cumulativeGasUsed": "0x70d6",
      "gasUsed": "0x70d6",
      "contractAddress": null,
      "logs": [],
      "status": "0x1",
      "logsBloom": "0x00000000000000000000000000000000000000000000000000000000000000000000000000000000000000000000000000000000000000000000000000000000000000000000000000000000000000000000000000000000000000000000000000000000000000000000000000000000000000000000000000000000000000000000000000000000000000000000000000000000000000000000000000000000000000000000000000000000000000000000000000000000000000000000000000000000000000000000000000000000000000000000000000000000000000000000000000000000000000000000000000000000000000000000000000000000",
      "type": "0x2",
      "effectiveGasPrice": "0xb49b2278"
    }
  ],
  "libraries": [],
  "pending": [],
  "returns": {},
  "timestamp": 1694087489,
  "chain": 42161,
  "multi": false,
  "commit": "6bbdc12"
}