{
  "transactions": [
    {
      "hash": "0xc75ca3fb5c9ad26bc960e8b9c97a4910bf09daf5b24b1d87f122d65b2deafc6b",
      "transactionType": "CALL",
      "contractName": null,
      "contractAddress": null,
      "function": null,
      "arguments": null,
      "transaction": {
        "type": "0x02",
        "from": "0x90f79bf6eb2c4f870365e785982e1f101e93b906",
        "to": "0x389fbf457a6ba8dfed6b8f2c04899fea5ef92f12",
        "gas": "0x6aa4",
        "value": "0xde0b6b3a7640000",
        "data": "0x",
        "nonce": "0x2",
        "accessList": []
      },
      "additionalContracts": [],
      "isFixedGasLimit": false
    },
    {
      "hash": "0x83f3163ee2243f1d3dc5cd6b2bada24c5209813f36bd2710e2d41248ce4e3e4c",
      "transactionType": "CALL",
      "contractName": null,
      "contractAddress": "0x5FF137D4b0FDCD49DcA30c7CF57E578a026d2789",
      "function": null,
      "arguments": null,
      "transaction": {
        "type": "0x02",
        "from": "0x90f79bf6eb2c4f870365e785982e1f101e93b906",
        "to": "0x5ff137d4b0fdcd49dca30c7cf57e578a026d2789",
        "gas": "0x5fc4c",
        "value": "0x0",
        "data": "0x1fad948c000000000000000000000000000000000000000000000000000000000000004000000000000000000000000090f79bf6eb2c4f870365e785982e1f101e93b90600000000000000000000000000000000000000000000000000000000000000010000000000000000000000000000000000000000000000000000000000000020000000000000000000000000389fbf457a6ba8dfed6b8f2c04899fea5ef92f120000000000000000000000000000000000000000000000000000000000000000000000000000000000000000000000000000000000000000000000000000016000000000000000000000000000000000000000000000000000000000000002c00000000000000000000000000000000000000000000000000000000001312d000000000000000000000000000000000000000000000000000000000001312d00000000000000000000000000000000000000000000000000000000000007a120000000000000000000000000000000000000000000000000000000000007a120000000000000000000000000000000000000000000000000000000000000000100000000000000000000000000000000000000000000000000000000000002e0000000000000000000000000000000000000000000000000000000000000030000000000000000000000000000000000000000000000000000000000000001385de4839a76cf55d0c90e2061ef4386d962e15ae3296601cd000000000000000000000000f048ad83cb2dfd6037a43902a2a5be04e53cd2eb000000000000000000000000000000000000000000000000000000000000006000000000000000000000000000000000000000000000000000000000000000000000000000000000000000000000000000000000000000000000000000000084d1f57894000000000000000000000000d9ab5096a832b9ce79914329daee236f8eea03900000000000000000000000000000000000000000000000000000000000000040000000000000000000000000000000000000000000000000000000000000001490f79bf6eb2c4f870365e785982e1f101e93b90600000000000000000000000000000000000000000000000000000000000000000000000000000000000000000000000000000000000000000000000000000000000000000000000000000000000000000000000000000000000000000000000000000000000000000000000000000000000000000000000000000000000000000000000000000000000000000000004500000000b11600a9a0285ed7989cd6a7bc55ccd0e0c0c44c81ec2645cfcb829447770ce477918822fe26c101dd0e3f5b85c82821df343213980b95455b45b44df8015ec81b000000000000000000000000000000000000000000000000000000",
        "nonce": "0x3",
        "accessList": []
      },
      "additionalContracts": [
        {
          "transactionType": "CREATE2",
          "address": "0x389fBf457a6BA8dFeD6b8F2C04899feA5ef92f12",
          "initCode": "0x607f3d8160093d39f33d3d33735de4839a76cf55d0c90e2061ef4386d962e15ae314605757363d3d37363d7f360894a13ba1a3210667c828492db98dca3e2076cc3735a920a3ca505d382bbc545af43d6000803e6052573d6000fd5b3d6000f35b3d356020355560408036111560525736038060403d373d3d355af43d6000803e6052573d6000fd00"
        }
      ],
      "isFixedGasLimit": false
    },
    {
      "hash": "0x8114418b0c8d6b0bdb9981bd04cd86c60bed42ad20d84c482d3c8ae95fbe29cf",
      "transactionType": "CREATE",
      "contractName": "MarketRegistry",
      "contractAddress": "0xa61dB548EC834E1C74113Cd86Bd1F8f9fDd6EF22",
      "function": null,
      "arguments": null,
      "transaction": {
        "type": "0x02",
        "from": "0xf39fd6e51aad88f6f4ce6ab8827279cfffb92266",
        "gas": "0x270875",
        "value": "0x0",
        "data": "0x608060405234801561001057600080fd5b5061001a3361001f565b61006f565b600080546001600160a01b038381166001600160a01b0319831681178455604051919092169283917f8be0079c531659141344cd1fd0a4f28419497f9722a3daafe3b4186f6b6457e09190a35050565b61222a8061007e6000396000f3fe608060405234801561001057600080fd5b50600436106101165760003560e01c8063715018a6116100a2578063beb1744b11610071578063beb1744b1461029b578063c400536f146102ae578063c8d8cf88146102c1578063ec68fe68146102ca578063f2fde38b146102fd57600080fd5b8063715018a6146102525780638da5cb5b1461025a578063a373a16214610275578063be09272b1461028857600080fd5b806335ebc21f116100e957806335ebc21f146101c057806343110efa146101eb5780634453f4d0146101fe5780635ce95b771461021f5780636e76b7421461023f57600080fd5b8063087d50c41461011b5780630ab77cd5146101535780630b9568e914610168578063326c43791461017b575b600080fd5b61012e6101293660046119ac565b610310565b604080516001600160a01b039384168152929091166020830152015b60405180910390f35b6101666101613660046119e1565b610512565b005b6101666101763660046119ac565b61053b565b61018e6101893660046119ac565b6105f5565b6040805195151586526001600160a01b039485166020870152850192909252606084015216608082015260a00161014a565b6101d36101ce3660046119ac565b61080e565b60405161014a9c9b9a99989796959493929190611a49565b6101666101f93660046119e1565b6109a7565b61021161020c366004611be2565b6109d3565b60405190815260200161014a565b61023261022d3660046119ac565b610c17565b60405161014a9190611cb6565b61016661024d366004611dc6565b610e98565b6101666115d6565b6000546040516001600160a01b03909116815260200161014a565b6101666102833660046119ac565b6115ea565b610166610296366004611e65565b611699565b6101666102a93660046119ac565b6117d4565b6101666102bc3660046119ac565b611800565b61021160015481565b6102ed6102d83660046119e1565b60036020526000908152604090205460ff1681565b604051901515815260200161014a565b61016661030b3660046119e1565b611826565b6000806000600260008581526020019081526020016000206040518061018001604052908160008201805461034490611f5a565b80601f016020809104026020016040519081016040528092919081815260200182805461037090611f5a565b80156103bd5780601f10610392576101008083540402835291602001916103bd565b820191906000526020600020905b8154815290600101906020018083116103a057829003601f168201915b505050918352505060018201546001600160a01b03908116602083015260028301541660408201526003820180546060909201916103fa90611f5a565b80601f016020809104026020016040519081016040528092919081815260200182805461042690611f5a565b80156104735780601f1061044857610100808354040283529160200191610473565b820191906000526020600020905b81548152906001019060200180831161045657829003601f168201915b505050918352505060048201546001600160a01b03908116602080840191909152600584015480831660408086019190915260ff600160a01b8304811615156060870152600160a81b8304811615156080870152600160b01b909204909116151560a0850152600685015490921660c0840152600784015460e08401526008909301546101009092019190915290820151910151909590945092505050565b61051a61189f565b6001600160a01b03166000908152600360205260409020805460ff19169055565b60008181526002602052604090206005015481906001600160a01b031633811480159061057d57503360009081526003602052604090205460ff161515600114155b156105cf5760405162461bcd60e51b815260206004820152601d60248201527f6e6f742070726f70657220736563757269747920636f756e63696c2e2e00000060448201526064015b60405180910390fd5b50506000908152600260205260409020600501805460ff60a01b1916600160a01b179055565b600080600080600080600260008881526020019081526020016000206040518061018001604052908160008201805461062d90611f5a565b80601f016020809104026020016040519081016040528092919081815260200182805461065990611f5a565b80156106a65780601f1061067b576101008083540402835291602001916106a6565b820191906000526020600020905b81548152906001019060200180831161068957829003601f168201915b505050918352505060018201546001600160a01b03908116602083015260028301541660408201526003820180546060909201916106e390611f5a565b80601f016020809104026020016040519081016040528092919081815260200182805461070f90611f5a565b801561075c5780601f106107315761010080835404028352916020019161075c565b820191906000526020600020905b81548152906001019060200180831161073f57829003601f168201915b505050918352505060048201546001600160a01b0390811660208301526005830154808216604084015260ff600160a01b8204811615156060850152600160a81b820481161515608080860191909152600160b01b90920416151560a0840152600684015490911660c0830152600783015460e0830152600890920154610100918201528201516101208301516101408401516101608501519490930151919b909a5091985091965090945092505050565b60026020526000908152604090208054819061082990611f5a565b80601f016020809104026020016040519081016040528092919081815260200182805461085590611f5a565b80156108a25780601f10610877576101008083540402835291602001916108a2565b820191906000526020600020905b81548152906001019060200180831161088557829003601f168201915b5050506001840154600285015460038601805495966001600160a01b03938416969290931694509192506108d590611f5a565b80601f016020809104026020016040519081016040528092919081815260200182805461090190611f5a565b801561094e5780601f106109235761010080835404028352916020019161094e565b820191906000526020600020905b81548152906001019060200180831161093157829003601f168201915b505050600484015460058501546006860154600787015460089097015495966001600160a01b0393841696838516965060ff600160a01b850481169650600160a81b8504811695600160b01b909504169392909216918c565b6109af61189f565b6001600160a01b03166000908152600360205260409020805460ff19166001179055565b60006109dd611949565b8b8b8080601f01602080910402602001604051908101604052809392919081815260200183838082843760009201829052509385525050506001600160a01b03808c166020808501919091528b8216604080860191909152606085018c905260c0850184905260e085018490523360808601528a831660a086015289151561010086015291881661012085015261014084018790526101608401869052600154835260029052902081518291908190610a969082611fe3565b5060208201516001820180546001600160a01b039283166001600160a01b031991821617909155604084015160028401805491909316911617905560608201516003820190610ae59082611fe3565b5060808201516004820180546001600160a01b039283166001600160a01b03199182161790915560a084015160058401805460c087015160e08801516101008901511515600160b01b0260ff60b01b19911515600160a81b029190911661ffff60a81b19921515600160a01b026001600160a81b0319909416958816959095179290921716929092179190911790556101208401516006840180549190931691161790556101408201516007820155610160909101516008909101556001546040517f3f2884804bb29191cb5f8ca3cdf2f5377bfea8a2cda5cc01452aa9f34bf1051891610bda918f908f908f908f906120a3565b60405180910390a16001806000828254610bf49190612107565b909155505060018054610c079190612120565b9c9b505050505050505050505050565b610c1f611949565b600082815260026020526040902060050154600160a81b900460ff161580610c605750600082815260026020526040902060050154600160a01b900460ff16155b15610cbc5760405162461bcd60e51b815260206004820152602660248201527f6e6565642066696e616c5061737320616e64207365637572697479436f756e63604482015265696c5061737360d01b60648201526084016105c6565b6000828152600260205260409081902081516101808101909252805482908290610ce590611f5a565b80601f0160208091040260200160405190810160405280929190818152602001828054610d1190611f5a565b8015610d5e5780601f10610d3357610100808354040283529160200191610d5e565b820191906000526020600020905b815481529060010190602001808311610d4157829003601f168201915b505050918352505060018201546001600160a01b0390811660208301526002830154166040820152600382018054606090920191610d9b90611f5a565b80601f0160208091040260200160405190810160405280929190818152602001828054610dc790611f5a565b8015610e145780601f10610de957610100808354040283529160200191610e14565b820191906000526020600020905b815481529060010190602001808311610df757829003601f168201915b505050918352505060048201546001600160a01b0390811660208301526005830154808216604084015260ff600160a01b8204811615156060850152600160a81b8204811615156080850152600160b01b90910416151560a083015260068301541660c0820152600782015460e08201526008909101546101009091015292915050565b8960006002600083815260200190815260200160002060405180610180016040529081600082018054610eca90611f5a565b80601f0160208091040260200160405190810160405280929190818152602001828054610ef690611f5a565b8015610f435780601f10610f1857610100808354040283529160200191610f43565b820191906000526020600020905b815481529060010190602001808311610f2657829003601f168201915b505050918352505060018201546001600160a01b0390811660208301526002830154166040820152600382018054606090920191610f8090611f5a565b80601f0160208091040260200160405190810160405280929190818152602001828054610fac90611f5a565b8015610ff95780601f10610fce57610100808354040283529160200191610ff9565b820191906000526020600020905b815481529060010190602001808311610fdc57829003601f168201915b505050918352505060048201546001600160a01b0390811660208301526005830154808216604084015260ff600160a01b8204811615156060850152600160a81b820481161515608080860191909152600160b01b90920416151560a08401526006840154821660c0840152600784015460e0840152600890930154610100909201919091529082015191925033908216146110cd5760405162461bcd60e51b81526020600482015260136024820152726f6e6c792063726561746f7220706c6561736560681b60448201526064016105c6565b60e08201511515600114806110e8575060c082015115156001145b156111355760405162461bcd60e51b815260206004820152601a60248201527f6d6f72652075706461746520697320696d706f737369626c652100000000000060448201526064016105c6565b60008d90506000600260008381526020019081526020016000206040518061018001604052908160008201805461116b90611f5a565b80601f016020809104026020016040519081016040528092919081815260200182805461119790611f5a565b80156111e45780601f106111b9576101008083540402835291602001916111e4565b820191906000526020600020905b8154815290600101906020018083116111c757829003601f168201915b505050918352505060018201546001600160a01b039081166020830152600283015416604082015260038201805460609092019161122190611f5a565b80601f016020809104026020016040519081016040528092919081815260200182805461124d90611f5a565b801561129a5780601f1061126f5761010080835404028352916020019161129a565b820191906000526020600020905b81548152906001019060200180831161127d57829003601f168201915b505050505081526020016004820160009054906101000a90046001600160a01b03166001600160a01b03166001600160a01b031681526020016005820160009054906101000a90046001600160a01b03166001600160a01b03166001600160a01b031681526020016005820160149054906101000a900460ff161515151581526020016005820160159054906101000a900460ff161515151581526020016005820160169054906101000a900460ff161515151581526020016006820160009054906101000a90046001600160a01b03166001600160a01b03166001600160a01b031681526020016007820154815260200160088201548152505090508d8d8080601f01602080910402602001604051908101604052809392919081815260200183838082843760009201829052509385525050506001600160a01b03808e166020808501919091528d8216604080860191909152606085018e90528c1515610100860152918b1661012085015261014084018a90526101608401899052848352600290529020815182919081906114329082611fe3565b5060208201516001820180546001600160a01b039283166001600160a01b0319918216179091556040840151600284018054919093169116179055606082015160038201906114819082611fe3565b5060808201518160040160006101000a8154816001600160a01b0302191690836001600160a01b0316021790555060a08201518160050160006101000a8154816001600160a01b0302191690836001600160a01b0316021790555060c08201518160050160146101000a81548160ff02191690831515021790555060e08201518160050160156101000a81548160ff0219169083151502179055506101008201518160050160166101000a81548160ff0219169083151502179055506101208201518160060160006101000a8154816001600160a01b0302191690836001600160a01b03160217905550610140820151816007015561016082015181600801559050507f1630c675b1cc627511323fedf1b7766f87ae0b0551cb4ed1933c31d9fa0180f76001548f8f8f8f6040516115bd9594939291906120a3565b60405180910390a1505050505050505050505050505050565b6115de61189f565b6115e860006118f9565b565b60008181526002602052604090206005015481906001600160a01b031633811480159061162c57503360009081526003602052604090205460ff161515600114155b156116795760405162461bcd60e51b815260206004820152601d60248201527f6e6f742070726f70657220736563757269747920636f756e63696c2e2e00000060448201526064016105c6565b50506000908152600260205260409020600501805460ff60a01b19169055565b6116a161189f565b60008c81526002602052604090206116ba8b8d83612133565b5060008c81526002602081905260409091206001810180546001600160a01b03808e166001600160a01b0319928316179092559282018054918c16919093161790915560030161170a8882611fe3565b5060008c815260026020526040908190206005810180546006830180546001600160a01b0319166001600160a01b03891617905560078301869055600890920184905562ff00ff60a01b19909116600160b01b8715150260ff60a01b191617600160a01b891515021760ff60a81b1916600160a81b8815150217905560015490517f1630c675b1cc627511323fedf1b7766f87ae0b0551cb4ed1933c31d9fa0180f7916117be918e908e908e908e906120a3565b60405180910390a1505050505050505050505050565b6117dc61189f565b6000908152600260205260409020600501805460ff60a81b1916600160a81b179055565b61180861189f565b6000908152600260205260409020600501805460ff60a81b19169055565b61182e61189f565b6001600160a01b0381166118935760405162461bcd60e51b815260206004820152602660248201527f4f776e61626c653a206e6577206f776e657220697320746865207a65726f206160448201526564647265737360d01b60648201526084016105c6565b61189c816118f9565b50565b6000546001600160a01b031633146115e85760405162461bcd60e51b815260206004820181905260248201527f4f776e61626c653a2063616c6c6572206973206e6f7420746865206f776e657260448201526064016105c6565b600080546001600160a01b038381166001600160a01b0319831681178455604051919092169283917f8be0079c531659141344cd1fd0a4f28419497f9722a3daafe3b4186f6b6457e09190a35050565b60408051610180810182526060808252600060208301819052928201839052808201526080810182905260a0810182905260c0810182905260e0810182905261010081018290526101208101829052610140810182905261016081019190915290565b6000602082840312156119be57600080fd5b5035919050565b80356001600160a01b03811681146119dc57600080fd5b919050565b6000602082840312156119f357600080fd5b6119fc826119c5565b9392505050565b6000815180845260005b81811015611a2957602081850181015186830182015201611a0d565b506000602082860101526020601f19601f83011685010191505092915050565b61018081526000611a5e61018083018f611a03565b6001600160a01b038e811660208501528d811660408501528382036060850152611a88828e611a03565b8c82166080860152908b1660a085015289151560c085015288151560e08501529150611ab19050565b8515156101008301526001600160a01b03851661012083015261014082019390935261016001529a9950505050505050505050565b60008083601f840112611af857600080fd5b50813567ffffffffffffffff811115611b1057600080fd5b602083019150836020828501011115611b2857600080fd5b9250929050565b634e487b7160e01b600052604160045260246000fd5b600082601f830112611b5657600080fd5b813567ffffffffffffffff80821115611b7157611b71611b2f565b604051601f8301601f19908116603f01168101908282118183101715611b9957611b99611b2f565b81604052838152866020858801011115611bb257600080fd5b836020870160208301376000602085830101528094505050505092915050565b803580151581146119dc57600080fd5b6000806000806000806000806000806101208b8d031215611c0257600080fd5b8a3567ffffffffffffffff80821115611c1a57600080fd5b611c268e838f01611ae6565b909c509a508a9150611c3a60208e016119c5565b9950611c4860408e016119c5565b985060608d0135915080821115611c5e57600080fd5b50611c6b8d828e01611b45565b965050611c7a60808c016119c5565b9450611c8860a08c01611bd2565b9350611c9660c08c016119c5565b925060e08b013591506101008b013590509295989b9194979a5092959850565b6020815260008251610180806020850152611cd56101a0850183611a03565b91506020850151611cf160408601826001600160a01b03169052565b5060408501516001600160a01b0381166060860152506060850151848303601f19016080860152611d228382611a03565b9250506080850151611d3f60a08601826001600160a01b03169052565b5060a08501516001600160a01b03811660c08601525060c085015180151560e08601525060e0850151610100611d788187018315159052565b8601519050610120611d8d8682018315159052565b8601519050610140611da9868201836001600160a01b03169052565b860151610160868101919091529095015193019290925250919050565b6000806000806000806000806000806101208b8d031215611de657600080fd5b8a35995060208b013567ffffffffffffffff80821115611e0557600080fd5b611e118e838f01611ae6565b909b509950899150611e2560408e016119c5565b9850611e3360608e016119c5565b975060808d0135915080821115611e4957600080fd5b50611e568d828e01611b45565b955050611c8860a08c01611bd2565b6000806000806000806000806000806000806101608d8f031215611e8857600080fd5b8c359b5067ffffffffffffffff60208e01351115611ea557600080fd5b611eb58e60208f01358f01611ae6565b909b509950611ec660408e016119c5565b9850611ed460608e016119c5565b975067ffffffffffffffff60808e01351115611eef57600080fd5b611eff8e60808f01358f01611b45565b9650611f0d60a08e01611bd2565b9550611f1b60c08e01611bd2565b9450611f2960e08e01611bd2565b9350611f386101008e016119c5565b92506101208d013591506101408d013590509295989b509295989b509295989b565b600181811c90821680611f6e57607f821691505b602082108103611f8e57634e487b7160e01b600052602260045260246000fd5b50919050565b601f821115611fde57600081815260208120601f850160051c81016020861015611fbb5750805b601f850160051c820191505b81811015611fda57828155600101611fc7565b5050505b505050565b815167ffffffffffffffff811115611ffd57611ffd611b2f565b6120118161200b8454611f5a565b84611f94565b602080601f831160018114612046576000841561202e5750858301515b600019600386901b1c1916600185901b178555611fda565b600085815260208120601f198616915b8281101561207557888601518255948401946001909101908401612056565b50858210156120935787850151600019600388901b60f8161c191681555b5050505050600190811b01905550565b85815260806020820152836080820152838560a0830137600060a08583018101919091526001600160a01b039384166040830152919092166060830152601f909201601f1916010192915050565b634e487b7160e01b600052601160045260246000fd5b8082018082111561211a5761211a6120f1565b92915050565b8181038181111561211a5761211a6120f1565b67ffffffffffffffff83111561214b5761214b611b2f565b61215f836121598354611f5a565b83611f94565b6000601f841160018114612193576000851561217b5750838201355b600019600387901b1c1916600186901b1783556121ed565b600083815260209020601f19861690835b828110156121c457868501358255602094850194600190920191016121a4565b50868210156121e15760001960f88860031b161c19848701351681555b505060018560011b0183555b505050505056fea2646970667358221220a936a1e34f59e853363efc49a783b5f7596005b66c5f0393ab121aed5488a66c64736f6c63430008110033",
        "nonce": "0xd90",
        "accessList": []
      },
      "additionalContracts": [],
      "isFixedGasLimit": false
    },
    {
      "hash": "0x668bfed1639a12fae2784f4cb82a0db93338867be0845bffed1fafc1668e0b67",
      "transactionType": "CREATE",
      "contractName": "Market",
      "contractAddress": "0x1AC65dF2A1d1aC5B66C32dAF500fE5218f6CeA7B",
      "function": null,
      "arguments": [
        "0xa61dB548EC834E1C74113Cd86Bd1F8f9fDd6EF22"
      ],
      "transaction": {
        "type": "0x02",
        "from": "0xf39fd6e51aad88f6f4ce6ab8827279cfffb92266",
        "gas": "0x7fcc7",
        "value": "0x0",
        "data": "0x608060405234801561001057600080fd5b5060405161067438038061067483398101604081905261002f91610054565b600080546001600160a01b0319166001600160a01b0392909216919091179055610084565b60006020828403121561006657600080fd5b81516001600160a01b038116811461007d57600080fd5b9392505050565b6105e1806100936000396000f3fe608060405234801561001057600080fd5b50600436106100415760003560e01c80633752a5c1146100465780637b1039991461005b578063efef39a11461008b575b600080fd5b6100596100543660046104a5565b6100ae565b005b60005461006e906001600160a01b031681565b6040516001600160a01b0390911681526020015b60405180910390f35b61009e6100993660046104d5565b6101c7565b6040519015158152602001610082565b60008281526001602081815260408084206001600160a01b038087168652908352818520825160c081018452815460ff81161515825261010090048316948101949094529384015491830191909152600283015460608301819052600384015460808401526004909301541660a0820152910361017d5760405162461bcd60e51b815260206004820152602260248201527f506c6561736520707572636861736520696e74656e74206170706c696361746960448201526137b760f11b60648201526084015b60405180910390fd5b42816080015110156101c25760405162461bcd60e51b815260206004820152600e60248201526d115e1c1a5c99590814195c9a5bd960921b6044820152606401610174565b505050565b6000805460405163326c437960e01b815260048101849052829182918291829182916001600160a01b03169063326c43799060240160a060405180830381865afa158015610219573d6000803e3d6000fd5b505050506040513d601f19601f8201168201806040525081019061023d9190610503565b945094509450945094506102946040518060c0016040528060001515815260200160006001600160a01b0316815260200160008152602001600081526020016000815260200160006001600160a01b031681525090565b85151560000361034a576000808252602080830182815260408085018481524260608701908152600019608088019081529d86526001808652838720338852909552919094208551815493516001600160a81b0319909416901515610100600160a81b031916176101006001600160a01b03948516021781559351848401555160028401559951600383015560a090920151600490910180546001600160a01b0319169190991617909755509495945050505050565b6040516323b872dd60e01b81523360048201526001600160a01b038381166024830152604482018690528616906323b872dd906064016020604051808303816000875af115801561039f573d6000803e3d6000fd5b505050506040513d601f19601f820116820180604052508101906103c39190610562565b50600181526001600160a01b03851660208201526040810184905242606082018190526103f1908490610584565b608082019081526000988952600160208181526040808c20338d5282529a8b902084518154928601516001600160a81b0319909316901515610100600160a81b031916176101006001600160a01b03938416021781559a8401518b830155606084015160028c0155915160038b015560a090920151600490990180546001600160a01b0319169990911698909817909755509495945050505050565b6001600160a01b03811681146104a257600080fd5b50565b600080604083850312156104b857600080fd5b8235915060208301356104ca8161048d565b809150509250929050565b6000602082840312156104e757600080fd5b5035919050565b805180151581146104fe57600080fd5b919050565b600080600080600060a0868803121561051b57600080fd5b610524866104ee565b945060208601516105348161048d565b80945050604086015192506060860151915060808601516105548161048d565b809150509295509295909350565b60006020828403121561057457600080fd5b61057d826104ee565b9392505050565b808201808211156105a557634e487b7160e01b600052601160045260246000fd5b9291505056fea26469706673582212202c3ab9c3902c7a6e3a4b09c016f7b4edfe6eb1d3459696bd2480aaef405b84f064736f6c63430008110033000000000000000000000000a61db548ec834e1c74113cd86bd1f8f9fdd6ef22",
        "nonce": "0xd91",
        "accessList": []
      },
      "additionalContracts": [],
      "isFixedGasLimit": false
    },
    {
      "hash": "0x9c7d520437ff66a8cfa43c48257c86348ee6f346f0b9f3ac7f49d4acdcc59f45",
      "transactionType": "CALL",
      "contractName": "MarketRegistry",
      "contractAddress": "0xa61dB548EC834E1C74113Cd86Bd1F8f9fDd6EF22",
      "function": "registerSecurityCouncil(address)",
      "arguments": [
        "0x70997970C51812dc3A010C7d01b50e0d17dc79C8"
      ],
      "transaction": {
        "type": "0x02",
        "from": "0xf39fd6e51aad88f6f4ce6ab8827279cfffb92266",
        "to": "0xa61db548ec834e1c74113cd86bd1f8f9fdd6ef22",
        "gas": "0xf901",
        "value": "0x0",
        "data": "0x43110efa00000000000000000000000070997970c51812dc3a010c7d01b50e0d17dc79c8",
        "nonce": "0xd92",
        "accessList": []
      },
      "additionalContracts": [],
      "isFixedGasLimit": false
    },
    {
      "hash": "0xc1e942117ded618320875886ae11b1407ec65ab6e9c80843d221309055ca6d0c",
      "transactionType": "CREATE",
      "contractName": "App",
      "contractAddress": "0x663F3ad617193148711d28f5334eE4Ed07016602",
      "function": null,
      "arguments": null,
      "transaction": {
        "type": "0x02",
        "from": "0x3c44cdddb6a900fa2b585dd299e03d12fa4293bc",
        "gas": "0xcb486",
        "value": "0x0",
        "data": "0x608060405234801561001057600080fd5b5061001a3361001f565b61006f565b600080546001600160a01b038381166001600160a01b0319831681178455604051919092169283917f8be0079c531659141344cd1fd0a4f28419497f9722a3daafe3b4186f6b6457e09190a35050565b610a2b8061007e6000396000f3fe608060405234801561001057600080fd5b506004361061007d5760003560e01c80638da5cb5b1161005b5780638da5cb5b146100b2578063b504e6b1146100db578063f2fde38b146100ee578063f887ea401461010157600080fd5b8063055227a11461008257806320e3dbd414610097578063715018a6146100aa575b600080fd5b6100956100903660046106c6565b610114565b005b6100956100a5366004610757565b6101a1565b6100956101cb565b6000546001600160a01b03165b6040516001600160a01b03909116815260200160405180910390f35b6100956100e9366004610779565b6101df565b6100956100fc366004610757565b61050d565b6002546100bf906001600160a01b031681565b61011c610586565b60408051602081019091526060815282828080602002602001604051908101604052809392919081815260200183836020028082843760009201829052509385525050506001600160a01b03808716825260016020908152604080842092881684529181529120825180518493610197928492910190610630565b5050505050505050565b6101a9610586565b600280546001600160a01b0319166001600160a01b0392909216919091179055565b6101d3610586565b6101dd60006105e0565b565b60006101ee60148284866107eb565b6101f791610815565b60601c9050600061020c6028601485876107eb565b61021591610815565b60601c9050600061022a6048602886886107eb565b6102339161084a565b6040516323b872dd60e01b8152336004820152306024820152604481018290529091506001600160a01b038416906323b872dd906064016020604051808303816000875af1158015610289573d6000803e3d6000fd5b505050506040513d601f19601f820116820180604052508101906102ad9190610869565b5060025460405163095ea7b360e01b81526001600160a01b03918216600482015260001960248201529084169063095ea7b3906044016020604051808303816000875af1158015610302573d6000803e3d6000fd5b505050506040513d601f19601f820116820180604052508101906103269190610869565b506001600160a01b0380841660009081526001602090815260408083209386168352928152828220835181548084028201860186529281018381529394909391928492918491908401828280156103a657602002820191906000526020600020905b81546001600160a01b03168152600190910190602001808311610388575b50505050508152505090508060000151516000036103fa5760405162461bcd60e51b815260206004820152600c60248201526b0dcdee840e6cae840e0c2e8d60a31b60448201526064015b60405180910390fd5b6002805482516001600160a01b03909116916338ed173991859160009190339061042590429061088b565b6040518663ffffffff1660e01b81526004016104459594939291906108b0565b6000604051808303816000875af1158015610464573d6000803e3d6000fd5b505050506040513d6000823e601f3d908101601f1916820160405261048c9190810190610937565b5060025460405163095ea7b360e01b81526001600160a01b039182166004820152600060248201529085169063095ea7b3906044016020604051808303816000875af11580156104e0573d6000803e3d6000fd5b505050506040513d601f19601f820116820180604052508101906105049190610869565b50505050505050565b610515610586565b6001600160a01b03811661057a5760405162461bcd60e51b815260206004820152602660248201527f4f776e61626c653a206e6577206f776e657220697320746865207a65726f206160448201526564647265737360d01b60648201526084016103f1565b610583816105e0565b50565b6000546001600160a01b031633146101dd5760405162461bcd60e51b815260206004820181905260248201527f4f776e61626c653a2063616c6c6572206973206e6f7420746865206f776e657260448201526064016103f1565b600080546001600160a01b038381166001600160a01b0319831681178455604051919092169283917f8be0079c531659141344cd1fd0a4f28419497f9722a3daafe3b4186f6b6457e09190a35050565b828054828255906000526020600020908101928215610685579160200282015b8281111561068557825182546001600160a01b0319166001600160a01b03909116178255602090920191600190910190610650565b50610691929150610695565b5090565b5b808211156106915760008155600101610696565b80356001600160a01b03811681146106c157600080fd5b919050565b600080600080606085870312156106dc57600080fd5b6106e5856106aa565b93506106f3602086016106aa565b9250604085013567ffffffffffffffff8082111561071057600080fd5b818701915087601f83011261072457600080fd5b81358181111561073357600080fd5b8860208260051b850101111561074857600080fd5b95989497505060200194505050565b60006020828403121561076957600080fd5b610772826106aa565b9392505050565b6000806020838503121561078c57600080fd5b823567ffffffffffffffff808211156107a457600080fd5b818501915085601f8301126107b857600080fd5b8135818111156107c757600080fd5b8660208285010111156107d957600080fd5b60209290920196919550909350505050565b600080858511156107fb57600080fd5b8386111561080857600080fd5b5050820193919092039150565b6bffffffffffffffffffffffff1981358181169160148510156108425780818660140360031b1b83161692505b505092915050565b8035602083101561086357600019602084900360031b1b165b92915050565b60006020828403121561087b57600080fd5b8151801515811461077257600080fd5b808202811582820484141761086357634e487b7160e01b600052601160045260246000fd5b600060a082018783526020878185015260a0604085015281875180845260c086019150828901935060005b818110156109005784516001600160a01b0316835293830193918301916001016108db565b50506001600160a01b03969096166060850152505050608001529392505050565b634e487b7160e01b600052604160045260246000fd5b6000602080838503121561094a57600080fd5b825167ffffffffffffffff8082111561096257600080fd5b818501915085601f83011261097657600080fd5b81518181111561098857610988610921565b8060051b604051601f19603f830116810181811085821117156109ad576109ad610921565b6040529182528482019250838101850191888311156109cb57600080fd5b938501935b828510156109e9578451845293850193928501926109d0565b9897505050505050505056fea2646970667358221220570673fc6d52a19ce2f9010c0b10c302a74425ac2110ad7f14139b2b381589cd64736f6c63430008110033",
        "nonce": "0x0",
        "accessList": []
      },
      "additionalContracts": [],
      "isFixedGasLimit": false
    },
    {
      "hash": "0xf2a6fe964d68d432ba1530a5c8314a924faaf448e231024d0a5b9748725e6064",
      "transactionType": "CREATE",
      "contractName": "Constraints",
      "contractAddress": "0x2E983A1Ba5e8b38AAAeC4B440B9dDcFBf72E15d1",
      "function": null,
      "arguments": null,
      "transaction": {
        "type": "0x02",
        "from": "0x3c44cdddb6a900fa2b585dd299e03d12fa4293bc",
        "gas": "0x8d30c",
        "value": "0x0",
        "data": "0x608060405234801561001057600080fd5b50610717806100206000396000f3fe608060405234801561001057600080fd5b50600436106100365760003560e01c806335a1a96c1461003b5780635beaf52c14610063575b600080fd5b61004e610049366004610507565b610083565b60405190151581526020015b60405180910390f35b610076610071366004610588565b610357565b60405161005a91906105db565b6000806100936020828587610629565b61009c91610653565b905060006100ae603460208688610629565b6100b791610672565b60601c905060006100cc605460348789610629565b6100d591610653565b905060006100e760686054888a610629565b6100f091610672565b60601c9050600061010560886068898b610629565b61010e91610653565b9050600061011f6020828c8e610629565b61012891610653565b9050600061013a604060208d8f610629565b61014391610653565b6040516370a0823160e01b81529091508d906000906001600160a01b038916906370a08231906101869085906004016001600160a01b0391909116815260200190565b602060405180830381865afa1580156101a3573d6000803e3d6000fd5b505050506040513d601f19601f820116820180604052508101906101c791906106a7565b6040516370a0823160e01b81526001600160a01b0384811660048301529192506000918816906370a0823190602401602060405180830381865afa158015610213573d6000803e3d6000fd5b505050506040513d601f19601f8201168201806040525081019061023791906106a7565b9050600061024583876106c0565b9050600061025386846106c0565b9050818c10156102aa5760405162461bcd60e51b815260206004820152601860248201527f746f6f206d75636820696e70757420616d6f756e74212121000000000000000060448201526064015b60405180910390fd5b808a11156102fa5760405162461bcd60e51b815260206004820152601b60248201527f746f6f206c6974746c65206f757470757420616d6f756e74212121000000000060448201526064016102a1565b4288111561033e5760405162461bcd60e51b815260206004820152601160248201527030b63932b0b23c9032bc3834b932b2171760791b60448201526064016102a1565b60019c5050505050505050505050505095945050505050565b606060006103686014828587610629565b61037191610672565b60601c90506000610386602860148688610629565b61038f91610672565b6040516370a0823160e01b81526001600160a01b03888116600483015260609290921c92506000918416906370a0823190602401602060405180830381865afa1580156103e0573d6000803e3d6000fd5b505050506040513d601f19601f8201168201806040525081019061040491906106a7565b6040516370a0823160e01b81526001600160a01b0389811660048301529192506000918416906370a0823190602401602060405180830381865afa158015610450573d6000803e3d6000fd5b505050506040513d601f19601f8201168201806040525081019061047491906106a7565b6040805160208101949094528381019190915280518084038201815260609093019052509695505050505050565b80356001600160a01b03811681146104b957600080fd5b919050565b60008083601f8401126104d057600080fd5b50813567ffffffffffffffff8111156104e857600080fd5b60208301915083602082850101111561050057600080fd5b9250929050565b60008060008060006060868803121561051f57600080fd5b610528866104a2565b9450602086013567ffffffffffffffff8082111561054557600080fd5b61055189838a016104be565b9096509450604088013591508082111561056a57600080fd5b50610577888289016104be565b969995985093965092949392505050565b60008060006040848603121561059d57600080fd5b6105a6846104a2565b9250602084013567ffffffffffffffff8111156105c257600080fd5b6105ce868287016104be565b9497909650939450505050565b600060208083528351808285015260005b81811015610608578581018301518582016040015282016105ec565b506000604082860101526040601f19601f8301168501019250505092915050565b6000808585111561063957600080fd5b8386111561064657600080fd5b5050820193919092039150565b8035602083101561066c57600019602084900360031b1b165b92915050565b6bffffffffffffffffffffffff19813581811691601485101561069f5780818660140360031b1b83161692505b505092915050565b6000602082840312156106b957600080fd5b5051919050565b8181038181111561066c57634e487b7160e01b600052601160045260246000fdfea26469706673582212206eead4e2dce3cd3d74a71efdeb4983737303be0f730759a8eb50876265b203e664736f6c63430008110033",
        "nonce": "0x1",
        "accessList": []
      },
      "additionalContracts": [],
      "isFixedGasLimit": false
    },
    {
      "hash": "0x44875ceb67f6533a03a6fc5abd6c1c667bf4ca832dc8b4f9b5175e7fc6b1e8e1",
      "transactionType": "CALL",
      "contractName": "MarketRegistry",
      "contractAddress": "0xa61dB548EC834E1C74113Cd86Bd1F8f9fDd6EF22",
      "function": "registerAppMetadata(string,address,address,string,address,bool,address,uint256,uint256):(uint256)",
      "arguments": [
        "testApp",
        "0x663F3ad617193148711d28f5334eE4Ed07016602",
        "0x2E983A1Ba5e8b38AAAeC4B440B9dDcFBf72E15d1",
        "{\"Inputdata\": [{\"name\": \"Input Amount\",\"uitype\": \"text\",\"datatype\": \"uint256\"},{\"name\": \"Input Asset\",\"uitype\": \"text\",\"datatype\": \"string\"},{\"name\": \"Output Amount\",\"uitype\": \"text\",\"datatype\": \"uint256\"},{\"name\": \"Output Asset\",\"uitype\": \"text\",\"datatype\": \"string\"}]}",
        "0x70997970C51812dc3A010C7d01b50e0d17dc79C8",
        "true",
        "0xaf88d065e77c8cC2239327C5EDb3A432268e5831",
        "10000000",
        "604800"
      ],
      "transaction": {
        "type": "0x02",
        "from": "0x3c44cdddb6a900fa2b585dd299e03d12fa4293bc",
        "to": "0xa61db548ec834e1c74113cd86bd1f8f9fdd6ef22",
        "gas": "0xa2b1e",
        "value": "0x0",
        "data": "0x4453f4d00000000000000000000000000000000000000000000000000000000000000120000000000000000000000000663f3ad617193148711d28f5334ee4ed070166020000000000000000000000002e983a1ba5e8b38aaaec4b440b9ddcfbf72e15d1000000000000000000000000000000000000000000000000000000000000016000000000000000000000000070997970c51812dc3a010c7d01b50e0d17dc79c80000000000000000000000000000000000000000000000000000000000000001000000000000000000000000af88d065e77c8cc2239327c5edb3a432268e583100000000000000000000000000000000000000000000000000000000009896800000000000000000000000000000000000000000000000000000000000093a8000000000000000000000000000000000000000000000000000000000000000077465737441707000000000000000000000000000000000000000000000000000000000000000000000000000000000000000000000000000000000000000010e7b22496e70757464617461223a205b7b226e616d65223a2022496e70757420416d6f756e74222c22756974797065223a202274657874222c226461746174797065223a202275696e74323536227d2c7b226e616d65223a2022496e707574204173736574222c22756974797065223a202274657874222c226461746174797065223a2022737472696e67227d2c7b226e616d65223a20224f757470757420416d6f756e74222c22756974797065223a202274657874222c226461746174797065223a202275696e74323536227d2c7b226e616d65223a20224f7574707574204173736574222c22756974797065223a202274657874222c226461746174797065223a2022737472696e67227d5d7d000000000000000000000000000000000000",
        "nonce": "0x2",
        "accessList": []
      },
      "additionalContracts": [],
      "isFixedGasLimit": false
    },
    {
      "hash": "0x66814940a8e3da5998661186da165e162fb5d461572baef04afa2fd97b0d3bcc",
      "transactionType": "CALL",
      "contractName": "MarketRegistry",
      "contractAddress": "0xa61dB548EC834E1C74113Cd86Bd1F8f9fDd6EF22",
      "function": "approveSecurityCouncil(uint256)",
      "arguments": [
        "0"
      ],
      "transaction": {
        "type": "0x02",
        "from": "0x70997970c51812dc3a010c7d01b50e0d17dc79c8",
        "to": "0xa61db548ec834e1c74113cd86bd1f8f9fdd6ef22",
        "gas": "0x6b9d",
        "value": "0x0",
        "data": "0x0b9568e90000000000000000000000000000000000000000000000000000000000000000",
        "nonce": "0x13",
        "accessList": []
      },
      "additionalContracts": [],
      "isFixedGasLimit": false
    },
    {
      "hash": "0xbe7cdec34904173a7b385d4a603e91cd12e43f2f5bb9c96463ba1e628f9e7a44",
      "transactionType": "CALL",
      "contractName": "MarketRegistry",
      "contractAddress": "0xa61dB548EC834E1C74113Cd86Bd1F8f9fDd6EF22",
      "function": "approveFinalPass(uint256)",
      "arguments": [
        "0"
      ],
      "transaction": {
        "type": "0x02",
        "from": "0xf39fd6e51aad88f6f4ce6ab8827279cfffb92266",
        "to": "0xa61db548ec834e1c74113cd86bd1f8f9fdd6ef22",
        "gas": "0xa3ff",
        "value": "0x0",
        "data": "0xbeb1744b0000000000000000000000000000000000000000000000000000000000000000",
        "nonce": "0xd93",
        "accessList": []
      },
      "additionalContracts": [],
      "isFixedGasLimit": false
    }
  ],
  "receipts": [
    {
      "transactionHash": "0xc75ca3fb5c9ad26bc960e8b9c97a4910bf09daf5b24b1d87f122d65b2deafc6b",
      "transactionIndex": "0x0",
      "blockHash": "0xa1a70db6e0605f3aa5672b76c225c2eb4ce36cd32b7c91122f5f543eb3dc3e5d",
      "blockNumber": "0x79f319a",
      "from": "0x90F79bf6EB2c4f870365E785982E1f101E93b906",
      "to": "0x389fBf457a6BA8dFeD6b8F2C04899feA5ef92f12",
      "cumulativeGasUsed": "0x5208",
      "gasUsed": "0x5208",
      "contractAddress": null,
      "logs": [],
      "status": "0x1",
      "logsBloom": "0x00000000000000000000000000000000000000000000000000000000000000000000000000000000000000000000000000000000000000000000000000000000000000000000000000000000000000000000000000000000000000000000000000000000000000000000000000000000000000000000000000000000000000000000000000000000000000000000000000000000000000000000000000000000000000000000000000000000000000000000000000000000000000000000000000000000000000000000000000000000000000000000000000000000000000000000000000000000000000000000000000000000000000000000000000000000",
      "type": "0x2",
      "effectiveGasPrice": "0xb8c63f00"
    },
    {
      "transactionHash": "0x83f3163ee2243f1d3dc5cd6b2bada24c5209813f36bd2710e2d41248ce4e3e4c",
      "transactionIndex": "0x0",
      "blockHash": "0x911ce6f9263b89df74573e0ff67e0b347e11dba3ca1b228863a51251a8727256",
      "blockNumber": "0x79f319b",
      "from": "0x90F79bf6EB2c4f870365E785982E1f101E93b906",
      "to": "0x5FF137D4b0FDCD49DcA30c7CF57E578a026d2789",
      "cumulativeGasUsed": "0x417c0",
      "gasUsed": "0x417c0",
      "contractAddress": null,
      "logs": [
        {
          "address": "0xd9AB5096a832b9ce79914329DAEE236f8Eea0390",
          "topics": [
            "0x381c0d11398486654573703c51ee8210ce9461764d133f9f0e53b6a539705331",
            "0x000000000000000000000000389fbf457a6ba8dfed6b8f2c04899fea5ef92f12",
            "0x0000000000000000000000000000000000000000000000000000000000000000",
            "0x00000000000000000000000090f79bf6eb2c4f870365e785982e1f101e93b906"
          ],
          "data": "0x",
          "blockHash": "0x911ce6f9263b89df74573e0ff67e0b347e11dba3ca1b228863a51251a8727256",
          "blockNumber": "0x79f319b",
          "transactionHash": "0x83f3163ee2243f1d3dc5cd6b2bada24c5209813f36bd2710e2d41248ce4e3e4c",
          "transactionIndex": "0x0",
          "logIndex": "0x0",
          "transactionLogIndex": "0x0",
          "removed": false
        },
        {
          "address": "0x5de4839a76cf55d0c90e2061ef4386d962E15ae3",
          "topics": [
            "0x09e48df7857bd0c1e0d31bb8a85d42cf1874817895f171c917f6ee2cea73ec20",
            "0x000000000000000000000000389fbf457a6ba8dfed6b8f2c04899fea5ef92f12",
            "0x000000000000000000000000f048ad83cb2dfd6037a43902a2a5be04e53cd2eb"
          ],
          "data": "0x",
          "blockHash": "0x911ce6f9263b89df74573e0ff67e0b347e11dba3ca1b228863a51251a8727256",
          "blockNumber": "0x79f319b",
          "transactionHash": "0x83f3163ee2243f1d3dc5cd6b2bada24c5209813f36bd2710e2d41248ce4e3e4c",
          "transactionIndex": "0x0",
          "logIndex": "0x1",
          "transactionLogIndex": "0x1",
          "removed": false
        },
        {
          "address": "0x5FF137D4b0FDCD49DcA30c7CF57E578a026d2789",
          "topics": [
            "0xd51a9c61267aa6196961883ecf5ff2da6619c37dac0fa92122513fb32c032d2d",
            "0x495de3be5832dcfacd8574be7026ed2c40bd62c91509bd34a99f7af7eaedfc52",
            "0x000000000000000000000000389fbf457a6ba8dfed6b8f2c04899fea5ef92f12"
          ],
          "data": "0x0000000000000000000000005de4839a76cf55d0c90e2061ef4386d962e15ae30000000000000000000000000000000000000000000000000000000000000000",
          "blockHash": "0x911ce6f9263b89df74573e0ff67e0b347e11dba3ca1b228863a51251a8727256",
          "blockNumber": "0x79f319b",
          "transactionHash": "0x83f3163ee2243f1d3dc5cd6b2bada24c5209813f36bd2710e2d41248ce4e3e4c",
          "transactionIndex": "0x0",
          "logIndex": "0x2",
          "transactionLogIndex": "0x2",
          "removed": false
        },
        {
          "address": "0x5FF137D4b0FDCD49DcA30c7CF57E578a026d2789",
          "topics": [
            "0x2da466a7b24304f47e87fa2e1e5a81b9831ce54fec19055ce277ca2f39ba42c4",
            "0x000000000000000000000000389fbf457a6ba8dfed6b8f2c04899fea5ef92f12"
          ],
          "data": "0x0000000000000000000000000000000000000000000000000000126ad20e8400",
          "blockHash": "0x911ce6f9263b89df74573e0ff67e0b347e11dba3ca1b228863a51251a8727256",
          "blockNumber": "0x79f319b",
          "transactionHash": "0x83f3163ee2243f1d3dc5cd6b2bada24c5209813f36bd2710e2d41248ce4e3e4c",
          "transactionIndex": "0x0",
          "logIndex": "0x3",
          "transactionLogIndex": "0x3",
          "removed": false
        },
        {
          "address": "0x5FF137D4b0FDCD49DcA30c7CF57E578a026d2789",
          "topics": [
            "0xbb47ee3e183a558b1a2ff0874b079f3fc5478b7454eacf2bfc5af2ff5878f972"
          ],
          "data": "0x",
          "blockHash": "0x911ce6f9263b89df74573e0ff67e0b347e11dba3ca1b228863a51251a8727256",
          "blockNumber": "0x79f319b",
          "transactionHash": "0x83f3163ee2243f1d3dc5cd6b2bada24c5209813f36bd2710e2d41248ce4e3e4c",
          "transactionIndex": "0x0",
          "logIndex": "0x4",
          "transactionLogIndex": "0x4",
          "removed": false
        },
        {
          "address": "0x5FF137D4b0FDCD49DcA30c7CF57E578a026d2789",
          "topics": [
            "0x49628fd1471006c1482da88028e9ce4dbb080b815c9b0344d39e5a8e6ec1419f",
            "0x495de3be5832dcfacd8574be7026ed2c40bd62c91509bd34a99f7af7eaedfc52",
            "0x000000000000000000000000389fbf457a6ba8dfed6b8f2c04899fea5ef92f12",
            "0x0000000000000000000000000000000000000000000000000000000000000000"
          ],
          "data": "0x0000000000000000000000000000000000000000000000000000000000000000000000000000000000000000000000000000000000000000000000000000000100000000000000000000000000000000000000000000000000000053eb45b66000000000000000000000000000000000000000000000000000000000000affdb",
          "blockHash": "0x911ce6f9263b89df74573e0ff67e0b347e11dba3ca1b228863a51251a8727256",
          "blockNumber": "0x79f319b",
          "transactionHash": "0x83f3163ee2243f1d3dc5cd6b2bada24c5209813f36bd2710e2d41248ce4e3e4c",
          "transactionIndex": "0x0",
          "logIndex": "0x5",
          "transactionLogIndex": "0x5",
          "removed": false
        }
      ],
      "status": "0x1",
      "logsBloom": "0x000004000000000000000000000000000000000000000000000000000000000002082000000000000002000100000000001000000000000000000210000000000000000000000000000000000000000000000000000000200000000000002000000000000a0000000000000000000800000000010000000000000000000200000000000000000000000000000080000000000300000400000400000000000000000000100000100000400000000000000000400100000000000002000000000000000000000000000001400000000000400004000000000000000020000420000050000000000000000010000200000000000000000000000080000002202000",
      "type": "0x2",
      "effectiveGasPrice": "0xb80782e1"
    },
    {
      "transactionHash": "0x8114418b0c8d6b0bdb9981bd04cd86c60bed42ad20d84c482d3c8ae95fbe29cf",
      "transactionIndex": "0x0",
      "blockHash": "0x7e65611832747fce5af318ceddf31cd3c86628f7db5c2c30fef5f2401a11ea45",
      "blockNumber": "0x79f319c",
      "from": "0xf39Fd6e51aad88F6F4ce6aB8827279cffFb92266",
      "to": null,
      "cumulativeGasUsed": "0x1e0682",
      "gasUsed": "0x1e0682",
      "contractAddress": "0xa61dB548EC834E1C74113Cd86Bd1F8f9fDd6EF22",
      "logs": [
        {
          "address": "0xa61dB548EC834E1C74113Cd86Bd1F8f9fDd6EF22",
          "topics": [
            "0x8be0079c531659141344cd1fd0a4f28419497f9722a3daafe3b4186f6b6457e0",
            "0x0000000000000000000000000000000000000000000000000000000000000000",
            "0x000000000000000000000000f39fd6e51aad88f6f4ce6ab8827279cfffb92266"
          ],
          "data": "0x",
          "blockHash": "0x7e65611832747fce5af318ceddf31cd3c86628f7db5c2c30fef5f2401a11ea45",
          "blockNumber": "0x79f319c",
          "transactionHash": "0x8114418b0c8d6b0bdb9981bd04cd86c60bed42ad20d84c482d3c8ae95fbe29cf",
          "transactionIndex": "0x0",
          "logIndex": "0x0",
          "transactionLogIndex": "0x0",
          "removed": false
        }
      ],
      "status": "0x1",
      "logsBloom": "0x00000000000000000000000000000000000000000000000000800000000008000000000000000000000000000000000000000000000000000000000000000000000000000000000000000000000000000001000000000010000000000000000000000000020000000000000100000800000000000000000000000000000000400000000000000000000000000000000000000000000000000000000000000000000000000000000000000000000000000000000000000000000000000000000000000000000000200000000000000000000000002000000000000080000020000000000000000000000000000000000000000000000000000000000000000000",
      "type": "0x2",
      "effectiveGasPrice": "0xb7609e45"
    },
    {
      "transactionHash": "0x668bfed1639a12fae2784f4cb82a0db93338867be0845bffed1fafc1668e0b67",
      "transactionIndex": "0x0",
      "blockHash": "0x2374d2a1d7329f8f53a8eed0b40794b9ffa4bdbc3e8cf63df191e66493cef073",
      "blockNumber": "0x79f319d",
      "from": "0xf39Fd6e51aad88F6F4ce6aB8827279cffFb92266",
      "to": null,
      "cumulativeGasUsed": "0x62552",
      "gasUsed": "0x62552",
      "contractAddress": "0x1AC65dF2A1d1aC5B66C32dAF500fE5218f6CeA7B",
      "logs": [],
      "status": "0x1",
      "logsBloom": "0x00000000000000000000000000000000000000000000000000000000000000000000000000000000000000000000000000000000000000000000000000000000000000000000000000000000000000000000000000000000000000000000000000000000000000000000000000000000000000000000000000000000000000000000000000000000000000000000000000000000000000000000000000000000000000000000000000000000000000000000000000000000000000000000000000000000000000000000000000000000000000000000000000000000000000000000000000000000000000000000000000000000000000000000000000000000",
      "type": "0x2",
      "effectiveGasPrice": "0xb6ce963d"
    },
    {
      "transactionHash": "0x9c7d520437ff66a8cfa43c48257c86348ee6f346f0b9f3ac7f49d4acdcc59f45",
      "transactionIndex": "0x0",
      "blockHash": "0x67b41e00bd48063ff56ea958a708f624b8decc963e4323f3e4e90b8052fe3e6b",
      "blockNumber": "0x79f319e",
      "from": "0xf39Fd6e51aad88F6F4ce6aB8827279cffFb92266",
      "to": "0xa61dB548EC834E1C74113Cd86Bd1F8f9fDd6EF22",
      "cumulativeGasUsed": "0xb447",
      "gasUsed": "0xb447",
      "contractAddress": null,
      "logs": [],
      "status": "0x1",
      "logsBloom": "0x00000000000000000000000000000000000000000000000000000000000000000000000000000000000000000000000000000000000000000000000000000000000000000000000000000000000000000000000000000000000000000000000000000000000000000000000000000000000000000000000000000000000000000000000000000000000000000000000000000000000000000000000000000000000000000000000000000000000000000000000000000000000000000000000000000000000000000000000000000000000000000000000000000000000000000000000000000000000000000000000000000000000000000000000000000000",
      "type": "0x2",
      "effectiveGasPrice": "0xb64ecf36"
    },
    {
      "transactionHash": "0xc1e942117ded618320875886ae11b1407ec65ab6e9c80843d221309055ca6d0c",
      "transactionIndex": "0x0",
      "blockHash": "0x6211abef2c3074789f57889672634e9b054960289410c77763afa6c8b891060b",
      "blockNumber": "0x79f319f",
      "from": "0x3C44CdDdB6a900fa2b585dd299e03d12FA4293BC",
      "to": null,
      "cumulativeGasUsed": "0x9c5f1",
      "gasUsed": "0x9c5f1",
      "contractAddress": "0x663F3ad617193148711d28f5334eE4Ed07016602",
      "logs": [
        {
          "address": "0x663F3ad617193148711d28f5334eE4Ed07016602",
          "topics": [
            "0x8be0079c531659141344cd1fd0a4f28419497f9722a3daafe3b4186f6b6457e0",
            "0x0000000000000000000000000000000000000000000000000000000000000000",
            "0x0000000000000000000000003c44cdddb6a900fa2b585dd299e03d12fa4293bc"
          ],
          "data": "0x",
          "blockHash": "0x6211abef2c3074789f57889672634e9b054960289410c77763afa6c8b891060b",
          "blockNumber": "0x79f319f",
          "transactionHash": "0xc1e942117ded618320875886ae11b1407ec65ab6e9c80843d221309055ca6d0c",
          "transactionIndex": "0x0",
          "logIndex": "0x0",
          "transactionLogIndex": "0x0",
          "removed": false
        }
      ],
      "status": "0x1",
      "logsBloom": "0x00000000000000000000000000000000000000004000000000800000000000000000000000000000000000000000000000000000000000000000000000100000000000000000000000000000000000000001000000000000000000000000000000000000020000000000000000000800000800000000000000000000000000400000000000000000000000000000000000000000000000000000000000000000000000000000200000000000000000000000000000000000000000000000000000000000008000001000000000000000000000000000000000000000000020000000000000000000000000000000000000000000000000000000000000000000",
      "type": "0x2",
      "effectiveGasPrice": "0xb5df0110"
    },
    {
      "transactionHash": "0xf2a6fe964d68d432ba1530a5c8314a924faaf448e231024d0a5b9748725e6064",
      "transactionIndex": "0x0",
      "blockHash": "0xa29d08f74638e1bc564bdb87e4f130623a5729a72e281f2a31954b77cc4afb25",
      "blockNumber": "0x79f31a0",
      "from": "0x3C44CdDdB6a900fa2b585dd299e03d12FA4293BC",
      "to": null,
      "cumulativeGasUsed": "0x6ca2f",
      "gasUsed": "0x6ca2f",
      "contractAddress": "0x2E983A1Ba5e8b38AAAeC4B440B9dDcFBf72E15d1",
      "logs": [],
      "status": "0x1",
      "logsBloom": "0x00000000000000000000000000000000000000000000000000000000000000000000000000000000000000000000000000000000000000000000000000000000000000000000000000000000000000000000000000000000000000000000000000000000000000000000000000000000000000000000000000000000000000000000000000000000000000000000000000000000000000000000000000000000000000000000000000000000000000000000000000000000000000000000000000000000000000000000000000000000000000000000000000000000000000000000000000000000000000000000000000000000000000000000000000000000",
      "type": "0x2",
      "effectiveGasPrice": "0xb57d2caf"
    },
    {
      "transactionHash": "0x44875ceb67f6533a03a6fc5abd6c1c667bf4ca832dc8b4f9b5175e7fc6b1e8e1",
      "transactionIndex": "0x0",
      "blockHash": "0x740c5325fef63aac279cc2d05274dbcae1e47ef14736f9ba3ae1fa0279a60693",
      "blockNumber": "0x79f31a1",
      "from": "0x3C44CdDdB6a900fa2b585dd299e03d12FA4293BC",
      "to": "0xa61dB548EC834E1C74113Cd86Bd1F8f9fDd6EF22",
      "cumulativeGasUsed": "0x6f3e9",
      "gasUsed": "0x6f3e9",
      "contractAddress": null,
      "logs": [
        {
          "address": "0xa61dB548EC834E1C74113Cd86Bd1F8f9fDd6EF22",
          "topics": [
            "0x3f2884804bb29191cb5f8ca3cdf2f5377bfea8a2cda5cc01452aa9f34bf10518"
          ],
          "data": "0x00000000000000000000000000000000000000000000000000000000000000000000000000000000000000000000000000000000000000000000000000000080000000000000000000000000663f3ad617193148711d28f5334ee4ed070166020000000000000000000000002e983a1ba5e8b38aaaec4b440b9ddcfbf72e15d100000000000000000000000000000000000000000000000000000000000000077465737441707000000000000000000000000000000000000000000000000000",
          "blockHash": "0x740c5325fef63aac279cc2d05274dbcae1e47ef14736f9ba3ae1fa0279a60693",
          "blockNumber": "0x79f31a1",
          "transactionHash": "0x44875ceb67f6533a03a6fc5abd6c1c667bf4ca832dc8b4f9b5175e7fc6b1e8e1",
          "transactionIndex": "0x0",
          "logIndex": "0x0",
          "transactionLogIndex": "0x0",
          "removed": false
        }
      ],
      "status": "0x1",
      "logsBloom": "0x00000000000000000000000000000000000000000000000000000000000008000000000000000000000000000000000000000000000000000000000000000000000000000000000000000000000000000000000000000010000000000000000000000000000000000000000000000000000000000000000000000000000000000000100000000000000000000000000000000000000000000000000000000000000000000000000000000000000000000000000000000000000000000000000000000000000000000000000000000000000002000000000200000080000000000000000000000000000000000000000000000000000000000000000000000000",
      "type": "0x2",
      "effectiveGasPrice": "0xb52792da"
    },
    {
      "transactionHash": "0x66814940a8e3da5998661186da165e162fb5d461572baef04afa2fd97b0d3bcc",
      "transactionIndex": "0x0",
      "blockHash": "0xbc9a663baaf34a220806325de2e8319e1ddf6c469bb4f97f3fb8ca3962b60c0f",
      "blockNumber": "0x79f31a2",
      "from": "0x70997970C51812dc3A010C7d01b50e0d17dc79C8",
      "to": "0xa61dB548EC834E1C74113Cd86Bd1F8f9fDd6EF22",
      "cumulativeGasUsed": "0x68d8",
      "gasUsed": "0x68d8",
      "contractAddress": null,
      "logs": [],
      "status": "0x1",
      "logsBloom": "0x00000000000000000000000000000000000000000000000000000000000000000000000000000000000000000000000000000000000000000000000000000000000000000000000000000000000000000000000000000000000000000000000000000000000000000000000000000000000000000000000000000000000000000000000000000000000000000000000000000000000000000000000000000000000000000000000000000000000000000000000000000000000000000000000000000000000000000000000000000000000000000000000000000000000000000000000000000000000000000000000000000000000000000000000000000000",
      "type": "0x2",
      "effectiveGasPrice": "0xb4dcac3f"
    },
    {
      "transactionHash": "0xbe7cdec34904173a7b385d4a603e91cd12e43f2f5bb9c96463ba1e628f9e7a44",
      "transactionIndex": "0x0",
      "blockHash": "0x61b7cf63da48119c33623ac72b797ee70ec3c00e6f60ad2c075cd32e9b95dafe",
      "blockNumber": "0x79f31a3",
      "from": "0xf39Fd6e51aad88F6F4ce6aB8827279cffFb92266",
      "to": "0xa61dB548EC834E1C74113Cd86Bd1F8f9fDd6EF22",
      "cumulativeGasUsed": "0x7023",
      "gasUsed": "0x7023",
      "contractAddress": null,
      "logs": [],
      "status": "0x1",
      "logsBloom": "0x00000000000000000000000000000000000000000000000000000000000000000000000000000000000000000000000000000000000000000000000000000000000000000000000000000000000000000000000000000000000000000000000000000000000000000000000000000000000000000000000000000000000000000000000000000000000000000000000000000000000000000000000000000000000000000000000000000000000000000000000000000000000000000000000000000000000000000000000000000000000000000000000000000000000000000000000000000000000000000000000000000000000000000000000000000000",
      "type": "0x2",
      "effectiveGasPrice": "0xb49b2278"
    }
  ],
  "libraries": [],
  "pending": [],
  "returns": {},
  "timestamp": 1694009170,
  "chain": 42161,
  "multi": false,
  "commit": "6bbdc12"
}